{
  "_format": "hh-sol-artifact-1",
  "contractName": "AgentRegistry",
  "sourceName": "src/AgentRegistry.sol",
  "abi": [
    {
      "anonymous": false,
      "inputs": [
        {
          "indexed": true,
          "internalType": "string",
          "name": "id",
          "type": "string"
        },
        {
          "indexed": false,
          "internalType": "string",
          "name": "name",
          "type": "string"
        },
        {
          "indexed": true,
          "internalType": "address",
          "name": "owner",
          "type": "address"
        },
        {
          "indexed": false,
          "internalType": "uint256",
          "name": "timestamp",
          "type": "uint256"
        }
      ],
      "name": "AgentRegistered",
      "type": "event"
    },
    {
      "anonymous": false,
      "inputs": [
        {
          "indexed": true,
          "internalType": "string",
          "name": "id",
          "type": "string"
        },
        {
          "indexed": false,
          "internalType": "enum AgentRegistry.AgentStatus",
          "name": "oldStatus",
          "type": "uint8"
        },
        {
          "indexed": false,
          "internalType": "enum AgentRegistry.AgentStatus",
          "name": "newStatus",
          "type": "uint8"
        },
        {
          "indexed": false,
          "internalType": "uint256",
          "name": "timestamp",
          "type": "uint256"
        }
      ],
      "name": "AgentStatusChanged",
      "type": "event"
    },
    {
      "anonymous": false,
      "inputs": [
        {
          "indexed": true,
          "internalType": "string",
          "name": "id",
          "type": "string"
        },
        {
          "indexed": true,
          "internalType": "address",
          "name": "owner",
          "type": "address"
        },
        {
          "indexed": false,
          "internalType": "uint256",
          "name": "timestamp",
          "type": "uint256"
        }
      ],
      "name": "AgentUnregistered",
      "type": "event"
    },
    {
      "anonymous": false,
      "inputs": [
        {
          "indexed": true,
          "internalType": "string",
          "name": "id",
          "type": "string"
        },
        {
          "indexed": false,
          "internalType": "enum AgentRegistry.AgentStatus",
          "name": "status",
          "type": "uint8"
        },
        {
          "indexed": false,
          "internalType": "uint256",
          "name": "timestamp",
          "type": "uint256"
        }
      ],
      "name": "AgentUpdated",
      "type": "event"
    },
    {
      "inputs": [
        {
          "internalType": "string",
          "name": "_id",
          "type": "string"
        }
      ],
      "name": "agentExistsCheck",
      "outputs": [
        {
          "internalType": "bool",
          "name": "",
          "type": "bool"
        }
      ],
      "stateMutability": "view",
      "type": "function"
    },
    {
      "inputs": [
        {
          "internalType": "string",
          "name": "_id",
          "type": "string"
        }
      ],
      "name": "getAgent",
      "outputs": [
        {
          "components": [
            {
              "internalType": "string",
              "name": "id",
              "type": "string"
            },
            {
              "internalType": "string",
              "name": "name",
              "type": "string"
            },
            {
              "internalType": "string",
              "name": "description",
              "type": "string"
            },
            {
              "internalType": "string",
              "name": "endpoint",
              "type": "string"
            },
            {
              "internalType": "string[]",
              "name": "capabilities",
              "type": "string[]"
            },
            {
              "internalType": "string[]",
              "name": "paymentMethods",
              "type": "string[]"
            },
            {
              "internalType": "enum AgentRegistry.AgentStatus",
              "name": "status",
              "type": "uint8"
            },
            {
              "internalType": "string",
              "name": "version",
              "type": "string"
            },
            {
              "internalType": "address",
              "name": "owner",
              "type": "address"
            },
            {
              "internalType": "uint256",
              "name": "createdAt",
              "type": "uint256"
            },
            {
              "internalType": "uint256",
              "name": "updatedAt",
              "type": "uint256"
            },
            {
              "internalType": "bool",
              "name": "exists",
              "type": "bool"
            }
          ],
          "internalType": "struct AgentRegistry.AgentCard",
          "name": "",
          "type": "tuple"
        }
      ],
      "stateMutability": "view",
      "type": "function"
    },
    {
      "inputs": [],
      "name": "getAgentCount",
      "outputs": [
        {
          "internalType": "uint256",
          "name": "",
          "type": "uint256"
        }
      ],
      "stateMutability": "view",
      "type": "function"
    },
    {
      "inputs": [
        {
          "internalType": "string",
          "name": "_id",
          "type": "string"
        }
      ],
      "name": "getAgentStatus",
      "outputs": [
        {
          "internalType": "enum AgentRegistry.AgentStatus",
          "name": "",
          "type": "uint8"
        }
      ],
      "stateMutability": "view",
      "type": "function"
    },
    {
      "inputs": [
        {
          "internalType": "string",
          "name": "_capability",
          "type": "string"
        }
      ],
      "name": "getAgentsByCapability",
      "outputs": [
        {
          "internalType": "string[]",
          "name": "",
          "type": "string[]"
        }
      ],
      "stateMutability": "view",
      "type": "function"
    },
    {
      "inputs": [
        {
          "internalType": "address",
          "name": "_owner",
          "type": "address"
        }
      ],
      "name": "getAgentsByOwner",
      "outputs": [
        {
          "internalType": "string[]",
          "name": "",
          "type": "string[]"
        }
      ],
      "stateMutability": "view",
      "type": "function"
    },
    {
      "inputs": [],
      "name": "getAllAgentIds",
      "outputs": [
        {
          "internalType": "string[]",
          "name": "",
          "type": "string[]"
        }
      ],
      "stateMutability": "view",
      "type": "function"
    },
    {
      "inputs": [
        {
          "internalType": "string",
          "name": "_id",
          "type": "string"
        },
        {
          "internalType": "string",
          "name": "_name",
          "type": "string"
        },
        {
          "internalType": "string",
          "name": "_description",
          "type": "string"
        },
        {
          "internalType": "string",
          "name": "_endpoint",
          "type": "string"
        },
        {
          "internalType": "string[]",
          "name": "_capabilities",
          "type": "string[]"
        },
        {
          "internalType": "string[]",
          "name": "_paymentMethods",
          "type": "string[]"
        },
        {
          "internalType": "string",
          "name": "_version",
          "type": "string"
        }
      ],
      "name": "registerAgent",
      "outputs": [],
      "stateMutability": "nonpayable",
      "type": "function"
    },
    {
      "inputs": [
        {
          "internalType": "string",
          "name": "_id",
          "type": "string"
        }
      ],
      "name": "unregisterAgent",
      "outputs": [],
      "stateMutability": "nonpayable",
      "type": "function"
    },
    {
      "inputs": [
        {
          "internalType": "string",
          "name": "_id",
          "type": "string"
        },
        {
          "internalType": "string",
          "name": "_description",
          "type": "string"
        },
        {
          "internalType": "string",
          "name": "_endpoint",
          "type": "string"
        },
        {
          "internalType": "string[]",
          "name": "_capabilities",
          "type": "string[]"
        },
        {
          "internalType": "string[]",
          "name": "_paymentMethods",
          "type": "string[]"
        }
      ],
      "name": "updateAgent",
      "outputs": [],
      "stateMutability": "nonpayable",
      "type": "function"
    },
    {
      "inputs": [
        {
          "internalType": "string",
          "name": "_id",
          "type": "string"
        },
        {
          "internalType": "enum AgentRegistry.AgentStatus",
          "name": "_status",
          "type": "uint8"
        }
      ],
      "name": "updateAgentStatus",
      "outputs": [],
      "stateMutability": "nonpayable",
      "type": "function"
    }
  ],
  "bytecode": "0x6080806040523461001657611981908161001c8239f35b600080fdfe6080604052600436101561001257600080fd5b60003560e01c80631136a59514610fde5780631ab6f88814610fa0578063231f498214610ea557806356ce6b6c14610e54578063794464e914610b90578063811f315d1461088157806391cab63e146108635780639971dfe6146107de578063ae9e12be14610553578063c40b8631146101075763cc62097a1461009557600080fd5b34610102576020366003190112610102576004356001600160401b038111610102576100f26100e360206100d06100fe943690600401611172565b8160405193828580945193849201611075565b8101600281520301902061172a565b604051918291826110bd565b0390f35b600080fd5b346101025760e0366003190112610102576001600160401b0360043581811161010257610138903690600401611172565b602490813583811161010257610152903690600401611172565b916044358481116101025761016b903690600401611172565b9060643585811161010257610184903690600401611172565b946084358181116101025761019d903690600401611248565b9560a435828111610102576101b6903690600401611248565b9160c435908111610102576101cf903690600401611172565b9160405160ff600b885192602081818c01956101ec818389611075565b8101600081520301902001541661050f578651156104d85787511561049f5788511561045b579061026a6102326020610261989594604051809381928d51928391611075565b81016000815203019020926102478985611386565b60019788956102588c888801611386565b60028601611386565b60038401611386565b88516004830161027a82826114f5565b60208b019060005260206000206000915b83831061043557505050506005820160208251926102a984846114f5565b019060005260206000206000915b8383106104115750505050806102e26006600b93019460ff1995858782541617905560078301611386565b60088101336bffffffffffffffffffffffff60a01b82541617905542600982015542600a8201550191825416179055600354600160401b8110156103fc57808361032f920160035561153e565b9190916103e857508261034191611386565b33600052806020526103578260406000206115a3565b6000815b6103af575b8361036a846115f3565b7f921126ae4db4efc87cf569f0e5ce159192ffc65bfce8de0b853fcbcea320bcf46103a060405193604085526040850190611098565b924260208201528033940390a3005b84518110156103e357806103d8846103d36103cd6103dd958a6115df565b516112c8565b6115a3565b6115d0565b8161035b565b610360565b634e487b7160e01b60005260006004526000fd5b50634e487b7160e01b60009081526041600452fd5b946020866104258394959697985186611386565b01920192019091879493926102b7565b9560208761044a839495969798995186611386565b01920192019091889594939261028b565b60405162461bcd60e51b8152602060048201819052818701527f4174206c65617374206f6e65206361706162696c6974792072657175697265646044820152606490fd5b60405162461bcd60e51b81526020600482015260128187015271496e76616c6964206167656e74206e616d6560701b6044820152606490fd5b60405162461bcd60e51b8152602060048201526010818701526f125b9d985b1a59081859d95b9d08125160821b6044820152606490fd5b60405162461bcd60e51b8152602060048201526018818701527f4167656e7420616c7265616479207265676973746572656400000000000000006044820152606490fd5b346101025760a0366003190112610102576001600160401b0360043581811161010257610584903690600401611172565b906024358181116101025761059d903690600401611172565b91604435828111610102576105b6903690600401611172565b91606435818111610102576105cf903690600401611248565b90608435908111610102576105eb909493943690600401611248565b600b610667604051855161062260ff60209584878096818d019661061081838a611075565b81016000815203019020015416611613565b61065660405160088951610637818487611075565b82019160008352858160018060a01b0394030190200154163314611656565b604051809381928951928391611075565b810160008152030190209160009660048401975b88548110156106ba57806103d8886106a96106b061069c6106b5968f61158b565b5060405192838092611694565b0382611151565b611897565b61067b565b5090876106d98794936106d08a60028901611386565b60038701611386565b8551906106e682826114f5565b6000908152838120848881015b8484106107c0575050505050600584018282519261071184846114f5565b019060005282600020836000925b8484106107a257505050505042600a84015560005b845181101561075757806103d8846103d36103cd610752958a6115df565b610734565b507f8eb1ef65a51a331fcde09aa6b0de7bc8d7818f348e461c3c7ccec88487016f6e60408361078d60ff600688015416916115f3565b9361079a83518093611224565b4290820152a2005b600191816107b284935186611386565b01920192019190849061071f565b600191816107d084935186611386565b0192019201919085906106f3565b34610102576020366003190112610102576004356001600160401b0381116101025760ff6006610847602061081881953690600401611172565b6040519061083686600b83519486818187019761061081838b611075565b604051938492839251928391611075565b810160008152030190200154166108616040518092611224565bf35b34610102576000366003190112610102576020600354604051908152f35b3461010257602080600319360112610102576004356001600160401b038111610102576108b2903690600401611172565b604051906108d160ff600b83519486818187019761061081838b611075565b610905604051600883516108e6818488611075565b82019160008352868160018060a01b0394030190200154163314611656565b60405183818351610917818388611075565b8101600081520301902092600460009401935b845481101561095057806103d8846106a96106b061069c61094b968b61158b565b61092a565b50809183336000526001908184526040600020826000905b610b16575b5050816000905b610a3d575b506000916109b561099b610a1096600b94604051809381928a51928391611075565b810187815203019020916109ae8361144d565b820161144d565b6109c16002820161144d565b6109cd6003820161144d565b6109d9600482016114bb565b6109e5600582016114bb565b8260068201556109f76007820161144d565b82600882015582600982015582600a82015501556115f3565b7fc0bb7c393fef9899b33f5fac25418dc8d2e8f4b52a9c30da5e81e2f9fa743305604051924284523393a3005b6003805480831015610b0f576106a9610a5861069c8561153e565b8781519101208651852014610a79575050610a7383916115d0565b90610974565b6000199650909391868201918211610af957610aa1610a9a610aa79361153e565b509161153e565b9061186b565b8254928315610ae35761099b87600b946109b593610a10996000980190610ad6610ad08361153e565b90611496565b5594509650505091610979565b634e487b7160e01b600052603160045260246000fd5b634e487b7160e01b600052601160045260246000fd5b5050610979565b815480821015610b8a576106a9610b3061069c848661158b565b8781519101208651852014610b52575090610b4b84926115d0565b9091610968565b9550906000198601958611610af957610b7e610b8392610aa1610b768a998561158b565b50918461158b565b61187a565b858061096d565b5061096d565b34610102576020366003190112610102576004356001600160401b038111610102576020610bc5610c3e923690600401611172565b6000610160604051610bd68161111f565b606081526060858201526060604082015260608082015260606080820152606060a08201528260c0820152606060e082015282610100820152826101208201528261014082015201526040519061083660ff600b83519486818187019761061081838b611075565b8101600081520301902060405190610c558261111f565b604051610c66816106a98185611694565b8252604051610c7c816106a98160018601611694565b6020830152604051610c95816106a98160028601611694565b6040830152604051610cae816106a98160038601611694565b6060830152610cbf6004820161172a565b6080830152610cd06005820161172a565b60a083015260ff6006820154166004811015610e3e5760ff91600b9160c0850152604051610d05816106a98160078601611694565b60e085015260018060a01b036008820154166101008501526009810154610120850152600a8101546101408501520154161515610160820152604051809160208252610160610e05610d65835161018060208701526101a0860190611098565b610ddd610dc9610db5610da1610d8d602089015195601f1996878c83030160408d0152611098565b6040890151868b83030160608c0152611098565b6060880151858a83030160808b0152611098565b6080870151848983030160a08a01526111c8565b60a0860151838883030160c08901526111c8565b90610df060c086015160e0880190611224565b60e08501519086830301610100870152611098565b9160018060a01b036101008201511661012085015261012081015161014085015261014081015182850152015115156101808301520390f35b634e487b7160e01b600052602160045260246000fd5b34610102576020366003190112610102576004356001600160401b0381116101025760ff600b610e8e60206100d081953690600401611172565b810160008152030190200154166040519015158152f35b34610102576040366003190112610102576004356001600160401b03811161010257610ed5903690600401611172565b602435600481101561010257606060ff610f977f80cc2723cee5a90217c666f435781b7f6fa6431fdbea26123a8bb0f354cda32193610f8d610f80610f58602089610f3288600b604051858181875197019661061081838a611075565b610f4760405160088d51610637818487611075565b604051809381928d51928391611075565b8101600081520301902097600689019889549987861688198c16179055600a429101556115f3565b9660405194859116611224565b6020830190611224565b426040820152a2005b34610102576020366003190112610102576004356001600160a01b038116908190036101025760005260016020526100fe6100f2604060002061172a565b3461010257600036600319011261010257600354610ffb81611231565b6110086040519182611151565b81815260209182820160036000527fc2575a0e9e593c00f959f8c92f12db2869c3395a3b0502d05e2516446f71f85b936000915b83831061105157604051806100fe87826110bd565b6001828192604051611067816106a9818d611694565b81520196019201919461103c565b60005b8381106110885750506000910152565b8181015183820152602001611078565b906020916110b181518092818552858086019101611075565b601f01601f1916010190565b602080820190808352835180925260408301928160408460051b8301019501936000915b8483106110f15750505050505090565b909192939495848061110f600193603f198682030187528a51611098565b98019301930191949392906110e1565b61018081019081106001600160401b0382111761113b57604052565b634e487b7160e01b600052604160045260246000fd5b90601f801991011681019081106001600160401b0382111761113b57604052565b81601f82011215610102578035906001600160401b03821161113b57604051926111a6601f8401601f191660200185611151565b8284526020838301011161010257816000926020809301838601378301015290565b908082519081815260208091019281808460051b8301019501936000915b8483106111f65750505050505090565b9091929394958480611214600193601f198682030187528a51611098565b98019301930191949392906111e6565b906004821015610e3e5752565b6001600160401b03811161113b5760051b60200190565b9080601f830112156101025781359061126082611231565b9261126e6040519485611151565b828452602092838086019160051b8301019280841161010257848301915b84831061129c5750505050505090565b82356001600160401b0381116101025786916112bd84848094890101611172565b81520192019161128c565b60206112e1918160405193828580945193849201611075565b8101600281520301902090565b90600182811c9216801561131e575b602083101461130857565b634e487b7160e01b600052602260045260246000fd5b91607f16916112fd565b818110611333575050565b60008155600101611328565b9190601f811161134e57505050565b61137a926000526020600020906020601f840160051c8301931061137c575b601f0160051c0190611328565b565b909150819061136d565b91909182516001600160401b03811161113b576113ad816113a784546112ee565b8461133f565b602080601f83116001146113e95750819293946000926113de575b50508160011b916000199060031b1c1916179055565b0151905038806113c8565b90601f198316958460005282600020926000905b8882106114355750508360019596971061141c575b505050811b019055565b015160001960f88460031b161c19169055388080611412565b806001859682949686015181550195019301906113fd565b61145781546112ee565b9081611461575050565b81601f60009311600114611473575055565b908083918252611492601f60208420940160051c840160018501611328565b5555565b906114a55761145781546112ee565b634e487b7160e01b600052600060045260246000fd5b80549060008155816114cb575050565b6000526020600020908101905b8181106114e3575050565b806114ef60019261144d565b016114d8565b90600160401b811161113b5781549181815582821061151357505050565b600052602060002091820191015b81811061152c575050565b8061153860019261144d565b01611521565b6003548110156115755760036000527fc2575a0e9e593c00f959f8c92f12db2869c3395a3b0502d05e2516446f71f85b0190600090565b634e487b7160e01b600052603260045260246000fd5b80548210156115755760005260206000200190600090565b8054600160401b81101561113b576115c09160018201815561158b565b9190916114a55761137a91611386565b6000198114610af95760010190565b80518210156115755760209160051b010190565b61160b90602060405192828480945193849201611075565b810103902090565b1561161a57565b60405162461bcd60e51b81526020600482015260146024820152731059d95b9d08191bd95cc81b9bdd08195e1a5cdd60621b6044820152606490fd5b1561165d57565b60405162461bcd60e51b815260206004820152600f60248201526e2737ba1030b3b2b73a1037bbb732b960891b6044820152606490fd5b90600092918054916116a5836112ee565b91828252600193848116908160001461170757506001146116c7575b50505050565b90919394506000526020928360002092846000945b8386106116f35750505050010190388080806116c1565b8054858701830152940193859082016116dc565b9294505050602093945060ff191683830152151560051b010190388080806116c1565b90815461173681611231565b9260409361174685519182611151565b828152809460208092019260005281600020906000935b85851061176c57505050505050565b60018481928451611781816106a9818a611694565b81520193019401939161175d565b90808214611867576117a181546112ee565b906001600160401b03821161113b5781906117c6826117c086546112ee565b8661133f565b600090601f83116001146117fc576000926117f15750508160011b916000199060031b1c1916179055565b0154905038806113c8565b81526020808220858352818320935090601f1985169083905b82821061184e57505090846001959493921061183557505050811b019055565b015460001960f88460031b161c19169055388080611412565b8495819295850154815560018091019601940190611815565b5050565b91906114a55761137a9161178f565b80548015610ae3576000190190611894610ad0838361158b565b55565b6040805182818094516118b08160209788809601611075565b8101600281520301902091600090815b845480821015611942576106a96118e66118da848961158b565b50875192838092611694565b838151910120875184890120146119065750611901906115d0565b6118c0565b935093945050600019820191821161192e57508291610aa1610b76610b7e9361137a9661158b565b634e487b7160e01b81526011600452602490fd5b5050505050505056fea2646970667358221220e72caaf45d9334b593421833109b30a58b45c87508efb0f37d3e51a2569c4a1164736f6c63430008140033",
  "linkReferences": {},
  "deployedLinkReferences": {}
}