{"src/AgentRegistry.sol":{"AgentRegistry":{"abi":[{"anonymous":false,"inputs":[{"indexed":true,"internalType":"string","name":"id","type":"string"},{"indexed":false,"internalType":"string","name":"name","type":"string"},{"indexed":true,"internalType":"address","name":"owner","type":"address"},{"indexed":false,"internalType":"uint256","name":"timestamp","type":"uint256"}],"name":"AgentRegistered","type":"event"},{"anonymous":false,"inputs":[{"indexed":true,"internalType":"string","name":"id","type":"string"},{"indexed":false,"internalType":"enum AgentRegistry.AgentStatus","name":"oldStatus","type":"uint8"},{"indexed":false,"internalType":"enum AgentRegistry.AgentStatus","name":"newStatus","type":"uint8"},{"indexed":false,"internalType":"uint256","name":"timestamp","type":"uint256"}],"name":"AgentStatusChanged","type":"event"},{"anonymous":false,"inputs":[{"indexed":true,"internalType":"string","name":"id","type":"string"},{"indexed":true,"internalType":"address","name":"owner","type":"address"},{"indexed":false,"internalType":"uint256","name":"timestamp","type":"uint256"}],"name":"AgentUnregistered","type":"event"},{"anonymous":false,"inputs":[{"indexed":true,"internalType":"string","name":"id","type":"string"},{"indexed":false,"internalType":"enum AgentRegistry.AgentStatus","name":"status","type":"uint8"},{"indexed":false,"internalType":"uint256","name":"timestamp","type":"uint256"}],"name":"AgentUpdated","type":"event"},{"inputs":[{"internalType":"string","name":"_id","type":"string"}],"name":"agentExistsCheck","outputs":[{"internalType":"bool","name":"","type":"bool"}],"stateMutability":"view","type":"function"},{"inputs":[{"internalType":"string","name":"_id","type":"string"}],"name":"getAgent","outputs":[{"components":[{"internalType":"string","name":"id","type":"string"},{"internalType":"string","name":"name","type":"string"},{"internalType":"string","name":"description","type":"string"},{"internalType":"string","name":"endpoint","type":"string"},{"internalType":"string[]","name":"capabilities","type":"string[]"},{"internalType":"string[]","name":"paymentMethods","type":"string[]"},{"internalType":"enum AgentRegistry.AgentStatus","name":"status","type":"uint8"},{"internalType":"string","name":"version","type":"string"},{"internalType":"address","name":"owner","type":"address"},{"internalType":"uint256","name":"createdAt","type":"uint256"},{"internalType":"uint256","name":"updatedAt","type":"uint256"},{"internalType":"bool","name":"exists","type":"bool"}],"internalType":"struct AgentRegistry.AgentCard","name":"","type":"tuple"}],"stateMutability":"view","type":"function"},{"inputs":[],"name":"getAgentCount","outputs":[{"internalType":"uint256","name":"","type":"uint256"}],"stateMutability":"view","type":"function"},{"inputs":[{"internalType":"string","name":"_id","type":"string"}],"name":"getAgentStatus","outputs":[{"internalType":"enum AgentRegistry.AgentStatus","name":"","type":"uint8"}],"stateMutability":"view","type":"function"},{"inputs":[{"internalType":"string","name":"_capability","type":"string"}],"name":"getAgentsByCapability","outputs":[{"internalType":"string[]","name":"","type":"string[]"}],"stateMutability":"view","type":"function"},{"inputs":[{"internalType":"address","name":"_owner","type":"address"}],"name":"getAgentsByOwner","outputs":[{"internalType":"string[]","name":"","type":"string[]"}],"stateMutability":"view","type":"function"},{"inputs":[],"name":"getAllAgentIds","outputs":[{"internalType":"string[]","name":"","type":"string[]"}],"stateMutability":"view","type":"function"},{"inputs":[{"internalType":"string","name":"_id","type":"string"},{"internalType":"string","name":"_name","type":"string"},{"internalType":"string","name":"_description","type":"string"},{"internalType":"string","name":"_endpoint","type":"string"},{"internalType":"string[]","name":"_capabilities","type":"string[]"},{"internalType":"string[]","name":"_paymentMethods","type":"string[]"},{"internalType":"string","name":"_version","type":"string"}],"name":"registerAgent","outputs":[],"stateMutability":"nonpayable","type":"function"},{"inputs":[{"internalType":"string","name":"_id","type":"string"}],"name":"unregisterAgent","outputs":[],"stateMutability":"nonpayable","type":"function"},{"inputs":[{"internalType":"string","name":"_id","type":"string"},{"internalType":"string","name":"_description","type":"string"},{"internalType":"string","name":"_endpoint","type":"string"},{"internalType":"string[]","name":"_capabilities","type":"string[]"},{"internalType":"string[]","name":"_paymentMethods","type":"string[]"}],"name":"updateAgent","outputs":[],"stateMutability":"nonpayable","type":"function"},{"inputs":[{"internalType":"string","name":"_id","type":"string"},{"internalType":"enum AgentRegistry.AgentStatus","name":"_status","type":"uint8"}],"name":"updateAgentStatus","outputs":[],"stateMutability":"nonpayable","type":"function"}],"evm":{"bytecode":{"linkReferences":{},"object":"6080806040523461001657611981908161001c8239f35b600080fdfe6080604052600436101561001257600080fd5b60003560e01c80631136a59514610fde5780631ab6f88814610fa0578063231f498214610ea557806356ce6b6c14610e54578063794464e914610b90578063811f315d1461088157806391cab63e146108635780639971dfe6146107de578063ae9e12be14610553578063c40b8631146101075763cc62097a1461009557600080fd5b34610102576020366003190112610102576004356001600160401b038111610102576100f26100e360206100d06100fe943690600401611172565b8160405193828580945193849201611075565b8101600281520301902061172a565b604051918291826110bd565b0390f35b600080fd5b346101025760e0366003190112610102576001600160401b0360043581811161010257610138903690600401611172565b602490813583811161010257610152903690600401611172565b916044358481116101025761016b903690600401611172565b9060643585811161010257610184903690600401611172565b946084358181116101025761019d903690600401611248565b9560a435828111610102576101b6903690600401611248565b9160c435908111610102576101cf903690600401611172565b9160405160ff600b885192602081818c01956101ec818389611075565b8101600081520301902001541661050f578651156104d85787511561049f5788511561045b579061026a6102326020610261989594604051809381928d51928391611075565b81016000815203019020926102478985611386565b60019788956102588c888801611386565b60028601611386565b60038401611386565b88516004830161027a82826114f5565b60208b019060005260206000206000915b83831061043557505050506005820160208251926102a984846114f5565b019060005260206000206000915b8383106104115750505050806102e26006600b93019460ff1995858782541617905560078301611386565b60088101336bffffffffffffffffffffffff60a01b82541617905542600982015542600a8201550191825416179055600354600160401b8110156103fc57808361032f920160035561153e565b9190916103e857508261034191611386565b33600052806020526103578260406000206115a3565b6000815b6103af575b8361036a846115f3565b7f921126ae4db4efc87cf569f0e5ce159192ffc65bfce8de0b853fcbcea320bcf46103a060405193604085526040850190611098565b924260208201528033940390a3005b84518110156103e357806103d8846103d36103cd6103dd958a6115df565b516112c8565b6115a3565b6115d0565b8161035b565b610360565b634e487b7160e01b60005260006004526000fd5b50634e487b7160e01b60009081526041600452fd5b946020866104258394959697985186611386565b01920192019091879493926102b7565b9560208761044a839495969798995186611386565b01920192019091889594939261028b565b60405162461bcd60e51b8152602060048201819052818701527f4174206c65617374206f6e65206361706162696c6974792072657175697265646044820152606490fd5b60405162461bcd60e51b81526020600482015260128187015271496e76616c6964206167656e74206e616d6560701b6044820152606490fd5b60405162461bcd60e51b8152602060048201526010818701526f125b9d985b1a59081859d95b9d08125160821b6044820152606490fd5b60405162461bcd60e51b8152602060048201526018818701527f4167656e7420616c7265616479207265676973746572656400000000000000006044820152606490fd5b346101025760a0366003190112610102576001600160401b0360043581811161010257610584903690600401611172565b906024358181116101025761059d903690600401611172565b91604435828111610102576105b6903690600401611172565b91606435818111610102576105cf903690600401611248565b90608435908111610102576105eb909493943690600401611248565b600b610667604051855161062260ff60209584878096818d019661061081838a611075565b81016000815203019020015416611613565b61065660405160088951610637818487611075565b82019160008352858160018060a01b0394030190200154163314611656565b604051809381928951928391611075565b810160008152030190209160009660048401975b88548110156106ba57806103d8886106a96106b061069c6106b5968f61158b565b5060405192838092611694565b0382611151565b611897565b61067b565b5090876106d98794936106d08a60028901611386565b60038701611386565b8551906106e682826114f5565b6000908152838120848881015b8484106107c0575050505050600584018282519261071184846114f5565b019060005282600020836000925b8484106107a257505050505042600a84015560005b845181101561075757806103d8846103d36103cd610752958a6115df565b610734565b507f8eb1ef65a51a331fcde09aa6b0de7bc8d7818f348e461c3c7ccec88487016f6e60408361078d60ff600688015416916115f3565b9361079a83518093611224565b4290820152a2005b600191816107b284935186611386565b01920192019190849061071f565b600191816107d084935186611386565b0192019201919085906106f3565b34610102576020366003190112610102576004356001600160401b0381116101025760ff6006610847602061081881953690600401611172565b6040519061083686600b83519486818187019761061081838b611075565b604051938492839251928391611075565b810160008152030190200154166108616040518092611224565bf35b34610102576000366003190112610102576020600354604051908152f35b3461010257602080600319360112610102576004356001600160401b038111610102576108b2903690600401611172565b604051906108d160ff600b83519486818187019761061081838b611075565b610905604051600883516108e6818488611075565b82019160008352868160018060a01b0394030190200154163314611656565b60405183818351610917818388611075565b8101600081520301902092600460009401935b845481101561095057806103d8846106a96106b061069c61094b968b61158b565b61092a565b50809183336000526001908184526040600020826000905b610b16575b5050816000905b610a3d575b506000916109b561099b610a1096600b94604051809381928a51928391611075565b810187815203019020916109ae8361144d565b820161144d565b6109c16002820161144d565b6109cd6003820161144d565b6109d9600482016114bb565b6109e5600582016114bb565b8260068201556109f76007820161144d565b82600882015582600982015582600a82015501556115f3565b7fc0bb7c393fef9899b33f5fac25418dc8d2e8f4b52a9c30da5e81e2f9fa743305604051924284523393a3005b6003805480831015610b0f576106a9610a5861069c8561153e565b8781519101208651852014610a79575050610a7383916115d0565b90610974565b6000199650909391868201918211610af957610aa1610a9a610aa79361153e565b509161153e565b9061186b565b8254928315610ae35761099b87600b946109b593610a10996000980190610ad6610ad08361153e565b90611496565b5594509650505091610979565b634e487b7160e01b600052603160045260246000fd5b634e487b7160e01b600052601160045260246000fd5b5050610979565b815480821015610b8a576106a9610b3061069c848661158b565b8781519101208651852014610b52575090610b4b84926115d0565b9091610968565b9550906000198601958611610af957610b7e610b8392610aa1610b768a998561158b565b50918461158b565b61187a565b858061096d565b5061096d565b34610102576020366003190112610102576004356001600160401b038111610102576020610bc5610c3e923690600401611172565b6000610160604051610bd68161111f565b606081526060858201526060604082015260608082015260606080820152606060a08201528260c0820152606060e082015282610100820152826101208201528261014082015201526040519061083660ff600b83519486818187019761061081838b611075565b8101600081520301902060405190610c558261111f565b604051610c66816106a98185611694565b8252604051610c7c816106a98160018601611694565b6020830152604051610c95816106a98160028601611694565b6040830152604051610cae816106a98160038601611694565b6060830152610cbf6004820161172a565b6080830152610cd06005820161172a565b60a083015260ff6006820154166004811015610e3e5760ff91600b9160c0850152604051610d05816106a98160078601611694565b60e085015260018060a01b036008820154166101008501526009810154610120850152600a8101546101408501520154161515610160820152604051809160208252610160610e05610d65835161018060208701526101a0860190611098565b610ddd610dc9610db5610da1610d8d602089015195601f1996878c83030160408d0152611098565b6040890151868b83030160608c0152611098565b6060880151858a83030160808b0152611098565b6080870151848983030160a08a01526111c8565b60a0860151838883030160c08901526111c8565b90610df060c086015160e0880190611224565b60e08501519086830301610100870152611098565b9160018060a01b036101008201511661012085015261012081015161014085015261014081015182850152015115156101808301520390f35b634e487b7160e01b600052602160045260246000fd5b34610102576020366003190112610102576004356001600160401b0381116101025760ff600b610e8e60206100d081953690600401611172565b810160008152030190200154166040519015158152f35b34610102576040366003190112610102576004356001600160401b03811161010257610ed5903690600401611172565b602435600481101561010257606060ff610f977f80cc2723cee5a90217c666f435781b7f6fa6431fdbea26123a8bb0f354cda32193610f8d610f80610f58602089610f3288600b604051858181875197019661061081838a611075565b610f4760405160088d51610637818487611075565b604051809381928d51928391611075565b8101600081520301902097600689019889549987861688198c16179055600a429101556115f3565b9660405194859116611224565b6020830190611224565b426040820152a2005b34610102576020366003190112610102576004356001600160a01b038116908190036101025760005260016020526100fe6100f2604060002061172a565b3461010257600036600319011261010257600354610ffb81611231565b6110086040519182611151565b81815260209182820160036000527fc2575a0e9e593c00f959f8c92f12db2869c3395a3b0502d05e2516446f71f85b936000915b83831061105157604051806100fe87826110bd565b6001828192604051611067816106a9818d611694565b81520196019201919461103c565b60005b8381106110885750506000910152565b8181015183820152602001611078565b906020916110b181518092818552858086019101611075565b601f01601f1916010190565b602080820190808352835180925260408301928160408460051b8301019501936000915b8483106110f15750505050505090565b909192939495848061110f600193603f198682030187528a51611098565b98019301930191949392906110e1565b61018081019081106001600160401b0382111761113b57604052565b634e487b7160e01b600052604160045260246000fd5b90601f801991011681019081106001600160401b0382111761113b57604052565b81601f82011215610102578035906001600160401b03821161113b57604051926111a6601f8401601f191660200185611151565b8284526020838301011161010257816000926020809301838601378301015290565b908082519081815260208091019281808460051b8301019501936000915b8483106111f65750505050505090565b9091929394958480611214600193601f198682030187528a51611098565b98019301930191949392906111e6565b906004821015610e3e5752565b6001600160401b03811161113b5760051b60200190565b9080601f830112156101025781359061126082611231565b9261126e6040519485611151565b828452602092838086019160051b8301019280841161010257848301915b84831061129c5750505050505090565b82356001600160401b0381116101025786916112bd84848094890101611172565b81520192019161128c565b60206112e1918160405193828580945193849201611075565b8101600281520301902090565b90600182811c9216801561131e575b602083101461130857565b634e487b7160e01b600052602260045260246000fd5b91607f16916112fd565b818110611333575050565b60008155600101611328565b9190601f811161134e57505050565b61137a926000526020600020906020601f840160051c8301931061137c575b601f0160051c0190611328565b565b909150819061136d565b91909182516001600160401b03811161113b576113ad816113a784546112ee565b8461133f565b602080601f83116001146113e95750819293946000926113de575b50508160011b916000199060031b1c1916179055565b0151905038806113c8565b90601f198316958460005282600020926000905b8882106114355750508360019596971061141c575b505050811b019055565b015160001960f88460031b161c19169055388080611412565b806001859682949686015181550195019301906113fd565b61145781546112ee565b9081611461575050565b81601f60009311600114611473575055565b908083918252611492601f60208420940160051c840160018501611328565b5555565b906114a55761145781546112ee565b634e487b7160e01b600052600060045260246000fd5b80549060008155816114cb575050565b6000526020600020908101905b8181106114e3575050565b806114ef60019261144d565b016114d8565b90600160401b811161113b5781549181815582821061151357505050565b600052602060002091820191015b81811061152c575050565b8061153860019261144d565b01611521565b6003548110156115755760036000527fc2575a0e9e593c00f959f8c92f12db2869c3395a3b0502d05e2516446f71f85b0190600090565b634e487b7160e01b600052603260045260246000fd5b80548210156115755760005260206000200190600090565b8054600160401b81101561113b576115c09160018201815561158b565b9190916114a55761137a91611386565b6000198114610af95760010190565b80518210156115755760209160051b010190565b61160b90602060405192828480945193849201611075565b810103902090565b1561161a57565b60405162461bcd60e51b81526020600482015260146024820152731059d95b9d08191bd95cc81b9bdd08195e1a5cdd60621b6044820152606490fd5b1561165d57565b60405162461bcd60e51b815260206004820152600f60248201526e2737ba1030b3b2b73a1037bbb732b960891b6044820152606490fd5b90600092918054916116a5836112ee565b91828252600193848116908160001461170757506001146116c7575b50505050565b90919394506000526020928360002092846000945b8386106116f35750505050010190388080806116c1565b8054858701830152940193859082016116dc565b9294505050602093945060ff191683830152151560051b010190388080806116c1565b90815461173681611231565b9260409361174685519182611151565b828152809460208092019260005281600020906000935b85851061176c57505050505050565b60018481928451611781816106a9818a611694565b81520193019401939161175d565b90808214611867576117a181546112ee565b906001600160401b03821161113b5781906117c6826117c086546112ee565b8661133f565b600090601f83116001146117fc576000926117f15750508160011b916000199060031b1c1916179055565b0154905038806113c8565b81526020808220858352818320935090601f1985169083905b82821061184e57505090846001959493921061183557505050811b019055565b015460001960f88460031b161c19169055388080611412565b8495819295850154815560018091019601940190611815565b5050565b91906114a55761137a9161178f565b80548015610ae3576000190190611894610ad0838361158b565b55565b6040805182818094516118b08160209788809601611075565b8101600281520301902091600090815b845480821015611942576106a96118e66118da848961158b565b50875192838092611694565b838151910120875184890120146119065750611901906115d0565b6118c0565b935093945050600019820191821161192e57508291610aa1610b76610b7e9361137a9661158b565b634e487b7160e01b81526011600452602490fd5b5050505050505056fea2646970667358221220e72caaf45d9334b593421833109b30a58b45c87508efb0f37d3e51a2569c4a1164736f6c63430008140033","opcodes":"PUSH1 0x80 DUP1 PUSH1 0x40 MSTORE CALLVALUE PUSH2 0x16 JUMPI PUSH2 0x1981 SWAP1 DUP2 PUSH2 0x1C DUP3 CODECOPY RETURN JUMPDEST PUSH1 0x0 DUP1 REVERT INVALID PUSH1 0x80 PUSH1 0x40 MSTORE PUSH1 0x4 CALLDATASIZE LT ISZERO PUSH2 0x12 JUMPI PUSH1 0x0 DUP1 REVERT JUMPDEST PUSH1 0x0 CALLDATALOAD PUSH1 0xE0 SHR DUP1 PUSH4 0x1136A595 EQ PUSH2 0xFDE JUMPI DUP1 PUSH4 0x1AB6F888 EQ PUSH2 0xFA0 JUMPI DUP1 PUSH4 0x231F4982 EQ PUSH2 0xEA5 JUMPI DUP1 PUSH4 0x56CE6B6C EQ PUSH2 0xE54 JUMPI DUP1 PUSH4 0x794464E9 EQ PUSH2 0xB90 JUMPI DUP1 PUSH4 0x811F315D EQ PUSH2 0x881 JUMPI DUP1 PUSH4 0x91CAB63E EQ PUSH2 0x863 JUMPI DUP1 PUSH4 0x9971DFE6 EQ PUSH2 0x7DE JUMPI DUP1 PUSH4 0xAE9E12BE EQ PUSH2 0x553 JUMPI DUP1 PUSH4 0xC40B8631 EQ PUSH2 0x107 JUMPI PUSH4 0xCC62097A EQ PUSH2 0x95 JUMPI PUSH1 0x0 DUP1 REVERT JUMPDEST CALLVALUE PUSH2 0x102 JUMPI PUSH1 0x20 CALLDATASIZE PUSH1 0x3 NOT ADD SLT PUSH2 0x102 JUMPI PUSH1 0x4 CALLDATALOAD PUSH1 0x1 PUSH1 0x1 PUSH1 0x40 SHL SUB DUP2 GT PUSH2 0x102 JUMPI PUSH2 0xF2 PUSH2 0xE3 PUSH1 0x20 PUSH2 0xD0 PUSH2 0xFE SWAP5 CALLDATASIZE SWAP1 PUSH1 0x4 ADD PUSH2 0x1172 JUMP JUMPDEST DUP2 PUSH1 0x40 MLOAD SWAP4 DUP3 DUP6 DUP1 SWAP5 MLOAD SWAP4 DUP5 SWAP3 ADD PUSH2 0x1075 JUMP JUMPDEST DUP2 ADD PUSH1 0x2 DUP2 MSTORE SUB ADD SWAP1 KECCAK256 PUSH2 0x172A JUMP JUMPDEST PUSH1 0x40 MLOAD SWAP2 DUP3 SWAP2 DUP3 PUSH2 0x10BD JUMP JUMPDEST SUB SWAP1 RETURN JUMPDEST PUSH1 0x0 DUP1 REVERT JUMPDEST CALLVALUE PUSH2 0x102 JUMPI PUSH1 0xE0 CALLDATASIZE PUSH1 0x3 NOT ADD SLT PUSH2 0x102 JUMPI PUSH1 0x1 PUSH1 0x1 PUSH1 0x40 SHL SUB PUSH1 0x4 CALLDATALOAD DUP2 DUP2 GT PUSH2 0x102 JUMPI PUSH2 0x138 SWAP1 CALLDATASIZE SWAP1 PUSH1 0x4 ADD PUSH2 0x1172 JUMP JUMPDEST PUSH1 0x24 SWAP1 DUP2 CALLDATALOAD DUP4 DUP2 GT PUSH2 0x102 JUMPI PUSH2 0x152 SWAP1 CALLDATASIZE SWAP1 PUSH1 0x4 ADD PUSH2 0x1172 JUMP JUMPDEST SWAP2 PUSH1 0x44 CALLDATALOAD DUP5 DUP2 GT PUSH2 0x102 JUMPI PUSH2 0x16B SWAP1 CALLDATASIZE SWAP1 PUSH1 0x4 ADD PUSH2 0x1172 JUMP JUMPDEST SWAP1 PUSH1 0x64 CALLDATALOAD DUP6 DUP2 GT PUSH2 0x102 JUMPI PUSH2 0x184 SWAP1 CALLDATASIZE SWAP1 PUSH1 0x4 ADD PUSH2 0x1172 JUMP JUMPDEST SWAP5 PUSH1 0x84 CALLDATALOAD DUP2 DUP2 GT PUSH2 0x102 JUMPI PUSH2 0x19D SWAP1 CALLDATASIZE SWAP1 PUSH1 0x4 ADD PUSH2 0x1248 JUMP JUMPDEST SWAP6 PUSH1 0xA4 CALLDATALOAD DUP3 DUP2 GT PUSH2 0x102 JUMPI PUSH2 0x1B6 SWAP1 CALLDATASIZE SWAP1 PUSH1 0x4 ADD PUSH2 0x1248 JUMP JUMPDEST SWAP2 PUSH1 0xC4 CALLDATALOAD SWAP1 DUP2 GT PUSH2 0x102 JUMPI PUSH2 0x1CF SWAP1 CALLDATASIZE SWAP1 PUSH1 0x4 ADD PUSH2 0x1172 JUMP JUMPDEST SWAP2 PUSH1 0x40 MLOAD PUSH1 0xFF PUSH1 0xB DUP9 MLOAD SWAP3 PUSH1 0x20 DUP2 DUP2 DUP13 ADD SWAP6 PUSH2 0x1EC DUP2 DUP4 DUP10 PUSH2 0x1075 JUMP JUMPDEST DUP2 ADD PUSH1 0x0 DUP2 MSTORE SUB ADD SWAP1 KECCAK256 ADD SLOAD AND PUSH2 0x50F JUMPI DUP7 MLOAD ISZERO PUSH2 0x4D8 JUMPI DUP8 MLOAD ISZERO PUSH2 0x49F JUMPI DUP9 MLOAD ISZERO PUSH2 0x45B JUMPI SWAP1 PUSH2 0x26A PUSH2 0x232 PUSH1 0x20 PUSH2 0x261 SWAP9 SWAP6 SWAP5 PUSH1 0x40 MLOAD DUP1 SWAP4 DUP2 SWAP3 DUP14 MLOAD SWAP3 DUP4 SWAP2 PUSH2 0x1075 JUMP JUMPDEST DUP2 ADD PUSH1 0x0 DUP2 MSTORE SUB ADD SWAP1 KECCAK256 SWAP3 PUSH2 0x247 DUP10 DUP6 PUSH2 0x1386 JUMP JUMPDEST PUSH1 0x1 SWAP8 DUP9 SWAP6 PUSH2 0x258 DUP13 DUP9 DUP9 ADD PUSH2 0x1386 JUMP JUMPDEST PUSH1 0x2 DUP7 ADD PUSH2 0x1386 JUMP JUMPDEST PUSH1 0x3 DUP5 ADD PUSH2 0x1386 JUMP JUMPDEST DUP9 MLOAD PUSH1 0x4 DUP4 ADD PUSH2 0x27A DUP3 DUP3 PUSH2 0x14F5 JUMP JUMPDEST PUSH1 0x20 DUP12 ADD SWAP1 PUSH1 0x0 MSTORE PUSH1 0x20 PUSH1 0x0 KECCAK256 PUSH1 0x0 SWAP2 JUMPDEST DUP4 DUP4 LT PUSH2 0x435 JUMPI POP POP POP POP PUSH1 0x5 DUP3 ADD PUSH1 0x20 DUP3 MLOAD SWAP3 PUSH2 0x2A9 DUP5 DUP5 PUSH2 0x14F5 JUMP JUMPDEST ADD SWAP1 PUSH1 0x0 MSTORE PUSH1 0x20 PUSH1 0x0 KECCAK256 PUSH1 0x0 SWAP2 JUMPDEST DUP4 DUP4 LT PUSH2 0x411 JUMPI POP POP POP POP DUP1 PUSH2 0x2E2 PUSH1 0x6 PUSH1 0xB SWAP4 ADD SWAP5 PUSH1 0xFF NOT SWAP6 DUP6 DUP8 DUP3 SLOAD AND OR SWAP1 SSTORE PUSH1 0x7 DUP4 ADD PUSH2 0x1386 JUMP JUMPDEST PUSH1 0x8 DUP2 ADD CALLER PUSH12 0xFFFFFFFFFFFFFFFFFFFFFFFF PUSH1 0xA0 SHL DUP3 SLOAD AND OR SWAP1 SSTORE TIMESTAMP PUSH1 0x9 DUP3 ADD SSTORE TIMESTAMP PUSH1 0xA DUP3 ADD SSTORE ADD SWAP2 DUP3 SLOAD AND OR SWAP1 SSTORE PUSH1 0x3 SLOAD PUSH1 0x1 PUSH1 0x40 SHL DUP2 LT ISZERO PUSH2 0x3FC JUMPI DUP1 DUP4 PUSH2 0x32F SWAP3 ADD PUSH1 0x3 SSTORE PUSH2 0x153E JUMP JUMPDEST SWAP2 SWAP1 SWAP2 PUSH2 0x3E8 JUMPI POP DUP3 PUSH2 0x341 SWAP2 PUSH2 0x1386 JUMP JUMPDEST CALLER PUSH1 0x0 MSTORE DUP1 PUSH1 0x20 MSTORE PUSH2 0x357 DUP3 PUSH1 0x40 PUSH1 0x0 KECCAK256 PUSH2 0x15A3 JUMP JUMPDEST PUSH1 0x0 DUP2 JUMPDEST PUSH2 0x3AF JUMPI JUMPDEST DUP4 PUSH2 0x36A DUP5 PUSH2 0x15F3 JUMP JUMPDEST PUSH32 0x921126AE4DB4EFC87CF569F0E5CE159192FFC65BFCE8DE0B853FCBCEA320BCF4 PUSH2 0x3A0 PUSH1 0x40 MLOAD SWAP4 PUSH1 0x40 DUP6 MSTORE PUSH1 0x40 DUP6 ADD SWAP1 PUSH2 0x1098 JUMP JUMPDEST SWAP3 TIMESTAMP PUSH1 0x20 DUP3 ADD MSTORE DUP1 CALLER SWAP5 SUB SWAP1 LOG3 STOP JUMPDEST DUP5 MLOAD DUP2 LT ISZERO PUSH2 0x3E3 JUMPI DUP1 PUSH2 0x3D8 DUP5 PUSH2 0x3D3 PUSH2 0x3CD PUSH2 0x3DD SWAP6 DUP11 PUSH2 0x15DF JUMP JUMPDEST MLOAD PUSH2 0x12C8 JUMP JUMPDEST PUSH2 0x15A3 JUMP JUMPDEST PUSH2 0x15D0 JUMP JUMPDEST DUP2 PUSH2 0x35B JUMP JUMPDEST PUSH2 0x360 JUMP JUMPDEST PUSH4 0x4E487B71 PUSH1 0xE0 SHL PUSH1 0x0 MSTORE PUSH1 0x0 PUSH1 0x4 MSTORE PUSH1 0x0 REVERT JUMPDEST POP PUSH4 0x4E487B71 PUSH1 0xE0 SHL PUSH1 0x0 SWAP1 DUP2 MSTORE PUSH1 0x41 PUSH1 0x4 MSTORE REVERT JUMPDEST SWAP5 PUSH1 0x20 DUP7 PUSH2 0x425 DUP4 SWAP5 SWAP6 SWAP7 SWAP8 SWAP9 MLOAD DUP7 PUSH2 0x1386 JUMP JUMPDEST ADD SWAP3 ADD SWAP3 ADD SWAP1 SWAP2 DUP8 SWAP5 SWAP4 SWAP3 PUSH2 0x2B7 JUMP JUMPDEST SWAP6 PUSH1 0x20 DUP8 PUSH2 0x44A DUP4 SWAP5 SWAP6 SWAP7 SWAP8 SWAP9 SWAP10 MLOAD DUP7 PUSH2 0x1386 JUMP JUMPDEST ADD SWAP3 ADD SWAP3 ADD SWAP1 SWAP2 DUP9 SWAP6 SWAP5 SWAP4 SWAP3 PUSH2 0x28B JUMP JUMPDEST PUSH1 0x40 MLOAD PUSH3 0x461BCD PUSH1 0xE5 SHL DUP2 MSTORE PUSH1 0x20 PUSH1 0x4 DUP3 ADD DUP2 SWAP1 MSTORE DUP2 DUP8 ADD MSTORE PUSH32 0x4174206C65617374206F6E65206361706162696C697479207265717569726564 PUSH1 0x44 DUP3 ADD MSTORE PUSH1 0x64 SWAP1 REVERT JUMPDEST PUSH1 0x40 MLOAD PUSH3 0x461BCD PUSH1 0xE5 SHL DUP2 MSTORE PUSH1 0x20 PUSH1 0x4 DUP3 ADD MSTORE PUSH1 0x12 DUP2 DUP8 ADD MSTORE PUSH18 0x496E76616C6964206167656E74206E616D65 PUSH1 0x70 SHL PUSH1 0x44 DUP3 ADD MSTORE PUSH1 0x64 SWAP1 REVERT JUMPDEST PUSH1 0x40 MLOAD PUSH3 0x461BCD PUSH1 0xE5 SHL DUP2 MSTORE PUSH1 0x20 PUSH1 0x4 DUP3 ADD MSTORE PUSH1 0x10 DUP2 DUP8 ADD MSTORE PUSH16 0x125B9D985B1A59081859D95B9D081251 PUSH1 0x82 SHL PUSH1 0x44 DUP3 ADD MSTORE PUSH1 0x64 SWAP1 REVERT JUMPDEST PUSH1 0x40 MLOAD PUSH3 0x461BCD PUSH1 0xE5 SHL DUP2 MSTORE PUSH1 0x20 PUSH1 0x4 DUP3 ADD MSTORE PUSH1 0x18 DUP2 DUP8 ADD MSTORE PUSH32 0x4167656E7420616C726561647920726567697374657265640000000000000000 PUSH1 0x44 DUP3 ADD MSTORE PUSH1 0x64 SWAP1 REVERT JUMPDEST CALLVALUE PUSH2 0x102 JUMPI PUSH1 0xA0 CALLDATASIZE PUSH1 0x3 NOT ADD SLT PUSH2 0x102 JUMPI PUSH1 0x1 PUSH1 0x1 PUSH1 0x40 SHL SUB PUSH1 0x4 CALLDATALOAD DUP2 DUP2 GT PUSH2 0x102 JUMPI PUSH2 0x584 SWAP1 CALLDATASIZE SWAP1 PUSH1 0x4 ADD PUSH2 0x1172 JUMP JUMPDEST SWAP1 PUSH1 0x24 CALLDATALOAD DUP2 DUP2 GT PUSH2 0x102 JUMPI PUSH2 0x59D SWAP1 CALLDATASIZE SWAP1 PUSH1 0x4 ADD PUSH2 0x1172 JUMP JUMPDEST SWAP2 PUSH1 0x44 CALLDATALOAD DUP3 DUP2 GT PUSH2 0x102 JUMPI PUSH2 0x5B6 SWAP1 CALLDATASIZE SWAP1 PUSH1 0x4 ADD PUSH2 0x1172 JUMP JUMPDEST SWAP2 PUSH1 0x64 CALLDATALOAD DUP2 DUP2 GT PUSH2 0x102 JUMPI PUSH2 0x5CF SWAP1 CALLDATASIZE SWAP1 PUSH1 0x4 ADD PUSH2 0x1248 JUMP JUMPDEST SWAP1 PUSH1 0x84 CALLDATALOAD SWAP1 DUP2 GT PUSH2 0x102 JUMPI PUSH2 0x5EB SWAP1 SWAP5 SWAP4 SWAP5 CALLDATASIZE SWAP1 PUSH1 0x4 ADD PUSH2 0x1248 JUMP JUMPDEST PUSH1 0xB PUSH2 0x667 PUSH1 0x40 MLOAD DUP6 MLOAD PUSH2 0x622 PUSH1 0xFF PUSH1 0x20 SWAP6 DUP5 DUP8 DUP1 SWAP7 DUP2 DUP14 ADD SWAP7 PUSH2 0x610 DUP2 DUP4 DUP11 PUSH2 0x1075 JUMP JUMPDEST DUP2 ADD PUSH1 0x0 DUP2 MSTORE SUB ADD SWAP1 KECCAK256 ADD SLOAD AND PUSH2 0x1613 JUMP JUMPDEST PUSH2 0x656 PUSH1 0x40 MLOAD PUSH1 0x8 DUP10 MLOAD PUSH2 0x637 DUP2 DUP5 DUP8 PUSH2 0x1075 JUMP JUMPDEST DUP3 ADD SWAP2 PUSH1 0x0 DUP4 MSTORE DUP6 DUP2 PUSH1 0x1 DUP1 PUSH1 0xA0 SHL SUB SWAP5 SUB ADD SWAP1 KECCAK256 ADD SLOAD AND CALLER EQ PUSH2 0x1656 JUMP JUMPDEST PUSH1 0x40 MLOAD DUP1 SWAP4 DUP2 SWAP3 DUP10 MLOAD SWAP3 DUP4 SWAP2 PUSH2 0x1075 JUMP JUMPDEST DUP2 ADD PUSH1 0x0 DUP2 MSTORE SUB ADD SWAP1 KECCAK256 SWAP2 PUSH1 0x0 SWAP7 PUSH1 0x4 DUP5 ADD SWAP8 JUMPDEST DUP9 SLOAD DUP2 LT ISZERO PUSH2 0x6BA JUMPI DUP1 PUSH2 0x3D8 DUP9 PUSH2 0x6A9 PUSH2 0x6B0 PUSH2 0x69C PUSH2 0x6B5 SWAP7 DUP16 PUSH2 0x158B JUMP JUMPDEST POP PUSH1 0x40 MLOAD SWAP3 DUP4 DUP1 SWAP3 PUSH2 0x1694 JUMP JUMPDEST SUB DUP3 PUSH2 0x1151 JUMP JUMPDEST PUSH2 0x1897 JUMP JUMPDEST PUSH2 0x67B JUMP JUMPDEST POP SWAP1 DUP8 PUSH2 0x6D9 DUP8 SWAP5 SWAP4 PUSH2 0x6D0 DUP11 PUSH1 0x2 DUP10 ADD PUSH2 0x1386 JUMP JUMPDEST PUSH1 0x3 DUP8 ADD PUSH2 0x1386 JUMP JUMPDEST DUP6 MLOAD SWAP1 PUSH2 0x6E6 DUP3 DUP3 PUSH2 0x14F5 JUMP JUMPDEST PUSH1 0x0 SWAP1 DUP2 MSTORE DUP4 DUP2 KECCAK256 DUP5 DUP9 DUP2 ADD JUMPDEST DUP5 DUP5 LT PUSH2 0x7C0 JUMPI POP POP POP POP POP PUSH1 0x5 DUP5 ADD DUP3 DUP3 MLOAD SWAP3 PUSH2 0x711 DUP5 DUP5 PUSH2 0x14F5 JUMP JUMPDEST ADD SWAP1 PUSH1 0x0 MSTORE DUP3 PUSH1 0x0 KECCAK256 DUP4 PUSH1 0x0 SWAP3 JUMPDEST DUP5 DUP5 LT PUSH2 0x7A2 JUMPI POP POP POP POP POP TIMESTAMP PUSH1 0xA DUP5 ADD SSTORE PUSH1 0x0 JUMPDEST DUP5 MLOAD DUP2 LT ISZERO PUSH2 0x757 JUMPI DUP1 PUSH2 0x3D8 DUP5 PUSH2 0x3D3 PUSH2 0x3CD PUSH2 0x752 SWAP6 DUP11 PUSH2 0x15DF JUMP JUMPDEST PUSH2 0x734 JUMP JUMPDEST POP PUSH32 0x8EB1EF65A51A331FCDE09AA6B0DE7BC8D7818F348E461C3C7CCEC88487016F6E PUSH1 0x40 DUP4 PUSH2 0x78D PUSH1 0xFF PUSH1 0x6 DUP9 ADD SLOAD AND SWAP2 PUSH2 0x15F3 JUMP JUMPDEST SWAP4 PUSH2 0x79A DUP4 MLOAD DUP1 SWAP4 PUSH2 0x1224 JUMP JUMPDEST TIMESTAMP SWAP1 DUP3 ADD MSTORE LOG2 STOP JUMPDEST PUSH1 0x1 SWAP2 DUP2 PUSH2 0x7B2 DUP5 SWAP4 MLOAD DUP7 PUSH2 0x1386 JUMP JUMPDEST ADD SWAP3 ADD SWAP3 ADD SWAP2 SWAP1 DUP5 SWAP1 PUSH2 0x71F JUMP JUMPDEST PUSH1 0x1 SWAP2 DUP2 PUSH2 0x7D0 DUP5 SWAP4 MLOAD DUP7 PUSH2 0x1386 JUMP JUMPDEST ADD SWAP3 ADD SWAP3 ADD SWAP2 SWAP1 DUP6 SWAP1 PUSH2 0x6F3 JUMP JUMPDEST CALLVALUE PUSH2 0x102 JUMPI PUSH1 0x20 CALLDATASIZE PUSH1 0x3 NOT ADD SLT PUSH2 0x102 JUMPI PUSH1 0x4 CALLDATALOAD PUSH1 0x1 PUSH1 0x1 PUSH1 0x40 SHL SUB DUP2 GT PUSH2 0x102 JUMPI PUSH1 0xFF PUSH1 0x6 PUSH2 0x847 PUSH1 0x20 PUSH2 0x818 DUP2 SWAP6 CALLDATASIZE SWAP1 PUSH1 0x4 ADD PUSH2 0x1172 JUMP JUMPDEST PUSH1 0x40 MLOAD SWAP1 PUSH2 0x836 DUP7 PUSH1 0xB DUP4 MLOAD SWAP5 DUP7 DUP2 DUP2 DUP8 ADD SWAP8 PUSH2 0x610 DUP2 DUP4 DUP12 PUSH2 0x1075 JUMP JUMPDEST PUSH1 0x40 MLOAD SWAP4 DUP5 SWAP3 DUP4 SWAP3 MLOAD SWAP3 DUP4 SWAP2 PUSH2 0x1075 JUMP JUMPDEST DUP2 ADD PUSH1 0x0 DUP2 MSTORE SUB ADD SWAP1 KECCAK256 ADD SLOAD AND PUSH2 0x861 PUSH1 0x40 MLOAD DUP1 SWAP3 PUSH2 0x1224 JUMP JUMPDEST RETURN JUMPDEST CALLVALUE PUSH2 0x102 JUMPI PUSH1 0x0 CALLDATASIZE PUSH1 0x3 NOT ADD SLT PUSH2 0x102 JUMPI PUSH1 0x20 PUSH1 0x3 SLOAD PUSH1 0x40 MLOAD SWAP1 DUP2 MSTORE RETURN JUMPDEST CALLVALUE PUSH2 0x102 JUMPI PUSH1 0x20 DUP1 PUSH1 0x3 NOT CALLDATASIZE ADD SLT PUSH2 0x102 JUMPI PUSH1 0x4 CALLDATALOAD PUSH1 0x1 PUSH1 0x1 PUSH1 0x40 SHL SUB DUP2 GT PUSH2 0x102 JUMPI PUSH2 0x8B2 SWAP1 CALLDATASIZE SWAP1 PUSH1 0x4 ADD PUSH2 0x1172 JUMP JUMPDEST PUSH1 0x40 MLOAD SWAP1 PUSH2 0x8D1 PUSH1 0xFF PUSH1 0xB DUP4 MLOAD SWAP5 DUP7 DUP2 DUP2 DUP8 ADD SWAP8 PUSH2 0x610 DUP2 DUP4 DUP12 PUSH2 0x1075 JUMP JUMPDEST PUSH2 0x905 PUSH1 0x40 MLOAD PUSH1 0x8 DUP4 MLOAD PUSH2 0x8E6 DUP2 DUP5 DUP9 PUSH2 0x1075 JUMP JUMPDEST DUP3 ADD SWAP2 PUSH1 0x0 DUP4 MSTORE DUP7 DUP2 PUSH1 0x1 DUP1 PUSH1 0xA0 SHL SUB SWAP5 SUB ADD SWAP1 KECCAK256 ADD SLOAD AND CALLER EQ PUSH2 0x1656 JUMP JUMPDEST PUSH1 0x40 MLOAD DUP4 DUP2 DUP4 MLOAD PUSH2 0x917 DUP2 DUP4 DUP9 PUSH2 0x1075 JUMP JUMPDEST DUP2 ADD PUSH1 0x0 DUP2 MSTORE SUB ADD SWAP1 KECCAK256 SWAP3 PUSH1 0x4 PUSH1 0x0 SWAP5 ADD SWAP4 JUMPDEST DUP5 SLOAD DUP2 LT ISZERO PUSH2 0x950 JUMPI DUP1 PUSH2 0x3D8 DUP5 PUSH2 0x6A9 PUSH2 0x6B0 PUSH2 0x69C PUSH2 0x94B SWAP7 DUP12 PUSH2 0x158B JUMP JUMPDEST PUSH2 0x92A JUMP JUMPDEST POP DUP1 SWAP2 DUP4 CALLER PUSH1 0x0 MSTORE PUSH1 0x1 SWAP1 DUP2 DUP5 MSTORE PUSH1 0x40 PUSH1 0x0 KECCAK256 DUP3 PUSH1 0x0 SWAP1 JUMPDEST PUSH2 0xB16 JUMPI JUMPDEST POP POP DUP2 PUSH1 0x0 SWAP1 JUMPDEST PUSH2 0xA3D JUMPI JUMPDEST POP PUSH1 0x0 SWAP2 PUSH2 0x9B5 PUSH2 0x99B PUSH2 0xA10 SWAP7 PUSH1 0xB SWAP5 PUSH1 0x40 MLOAD DUP1 SWAP4 DUP2 SWAP3 DUP11 MLOAD SWAP3 DUP4 SWAP2 PUSH2 0x1075 JUMP JUMPDEST DUP2 ADD DUP8 DUP2 MSTORE SUB ADD SWAP1 KECCAK256 SWAP2 PUSH2 0x9AE DUP4 PUSH2 0x144D JUMP JUMPDEST DUP3 ADD PUSH2 0x144D JUMP JUMPDEST PUSH2 0x9C1 PUSH1 0x2 DUP3 ADD PUSH2 0x144D JUMP JUMPDEST PUSH2 0x9CD PUSH1 0x3 DUP3 ADD PUSH2 0x144D JUMP JUMPDEST PUSH2 0x9D9 PUSH1 0x4 DUP3 ADD PUSH2 0x14BB JUMP JUMPDEST PUSH2 0x9E5 PUSH1 0x5 DUP3 ADD PUSH2 0x14BB JUMP JUMPDEST DUP3 PUSH1 0x6 DUP3 ADD SSTORE PUSH2 0x9F7 PUSH1 0x7 DUP3 ADD PUSH2 0x144D JUMP JUMPDEST DUP3 PUSH1 0x8 DUP3 ADD SSTORE DUP3 PUSH1 0x9 DUP3 ADD SSTORE DUP3 PUSH1 0xA DUP3 ADD SSTORE ADD SSTORE PUSH2 0x15F3 JUMP JUMPDEST PUSH32 0xC0BB7C393FEF9899B33F5FAC25418DC8D2E8F4B52A9C30DA5E81E2F9FA743305 PUSH1 0x40 MLOAD SWAP3 TIMESTAMP DUP5 MSTORE CALLER SWAP4 LOG3 STOP JUMPDEST PUSH1 0x3 DUP1 SLOAD DUP1 DUP4 LT ISZERO PUSH2 0xB0F JUMPI PUSH2 0x6A9 PUSH2 0xA58 PUSH2 0x69C DUP6 PUSH2 0x153E JUMP JUMPDEST DUP8 DUP2 MLOAD SWAP2 ADD KECCAK256 DUP7 MLOAD DUP6 KECCAK256 EQ PUSH2 0xA79 JUMPI POP POP PUSH2 0xA73 DUP4 SWAP2 PUSH2 0x15D0 JUMP JUMPDEST SWAP1 PUSH2 0x974 JUMP JUMPDEST PUSH1 0x0 NOT SWAP7 POP SWAP1 SWAP4 SWAP2 DUP7 DUP3 ADD SWAP2 DUP3 GT PUSH2 0xAF9 JUMPI PUSH2 0xAA1 PUSH2 0xA9A PUSH2 0xAA7 SWAP4 PUSH2 0x153E JUMP JUMPDEST POP SWAP2 PUSH2 0x153E JUMP JUMPDEST SWAP1 PUSH2 0x186B JUMP JUMPDEST DUP3 SLOAD SWAP3 DUP4 ISZERO PUSH2 0xAE3 JUMPI PUSH2 0x99B DUP8 PUSH1 0xB SWAP5 PUSH2 0x9B5 SWAP4 PUSH2 0xA10 SWAP10 PUSH1 0x0 SWAP9 ADD SWAP1 PUSH2 0xAD6 PUSH2 0xAD0 DUP4 PUSH2 0x153E JUMP JUMPDEST SWAP1 PUSH2 0x1496 JUMP JUMPDEST SSTORE SWAP5 POP SWAP7 POP POP POP SWAP2 PUSH2 0x979 JUMP JUMPDEST PUSH4 0x4E487B71 PUSH1 0xE0 SHL PUSH1 0x0 MSTORE PUSH1 0x31 PUSH1 0x4 MSTORE PUSH1 0x24 PUSH1 0x0 REVERT JUMPDEST PUSH4 0x4E487B71 PUSH1 0xE0 SHL PUSH1 0x0 MSTORE PUSH1 0x11 PUSH1 0x4 MSTORE PUSH1 0x24 PUSH1 0x0 REVERT JUMPDEST POP POP PUSH2 0x979 JUMP JUMPDEST DUP2 SLOAD DUP1 DUP3 LT ISZERO PUSH2 0xB8A JUMPI PUSH2 0x6A9 PUSH2 0xB30 PUSH2 0x69C DUP5 DUP7 PUSH2 0x158B JUMP JUMPDEST DUP8 DUP2 MLOAD SWAP2 ADD KECCAK256 DUP7 MLOAD DUP6 KECCAK256 EQ PUSH2 0xB52 JUMPI POP SWAP1 PUSH2 0xB4B DUP5 SWAP3 PUSH2 0x15D0 JUMP JUMPDEST SWAP1 SWAP2 PUSH2 0x968 JUMP JUMPDEST SWAP6 POP SWAP1 PUSH1 0x0 NOT DUP7 ADD SWAP6 DUP7 GT PUSH2 0xAF9 JUMPI PUSH2 0xB7E PUSH2 0xB83 SWAP3 PUSH2 0xAA1 PUSH2 0xB76 DUP11 SWAP10 DUP6 PUSH2 0x158B JUMP JUMPDEST POP SWAP2 DUP5 PUSH2 0x158B JUMP JUMPDEST PUSH2 0x187A JUMP JUMPDEST DUP6 DUP1 PUSH2 0x96D JUMP JUMPDEST POP PUSH2 0x96D JUMP JUMPDEST CALLVALUE PUSH2 0x102 JUMPI PUSH1 0x20 CALLDATASIZE PUSH1 0x3 NOT ADD SLT PUSH2 0x102 JUMPI PUSH1 0x4 CALLDATALOAD PUSH1 0x1 PUSH1 0x1 PUSH1 0x40 SHL SUB DUP2 GT PUSH2 0x102 JUMPI PUSH1 0x20 PUSH2 0xBC5 PUSH2 0xC3E SWAP3 CALLDATASIZE SWAP1 PUSH1 0x4 ADD PUSH2 0x1172 JUMP JUMPDEST PUSH1 0x0 PUSH2 0x160 PUSH1 0x40 MLOAD PUSH2 0xBD6 DUP2 PUSH2 0x111F JUMP JUMPDEST PUSH1 0x60 DUP2 MSTORE PUSH1 0x60 DUP6 DUP3 ADD MSTORE PUSH1 0x60 PUSH1 0x40 DUP3 ADD MSTORE PUSH1 0x60 DUP1 DUP3 ADD MSTORE PUSH1 0x60 PUSH1 0x80 DUP3 ADD MSTORE PUSH1 0x60 PUSH1 0xA0 DUP3 ADD MSTORE DUP3 PUSH1 0xC0 DUP3 ADD MSTORE PUSH1 0x60 PUSH1 0xE0 DUP3 ADD MSTORE DUP3 PUSH2 0x100 DUP3 ADD MSTORE DUP3 PUSH2 0x120 DUP3 ADD MSTORE DUP3 PUSH2 0x140 DUP3 ADD MSTORE ADD MSTORE PUSH1 0x40 MLOAD SWAP1 PUSH2 0x836 PUSH1 0xFF PUSH1 0xB DUP4 MLOAD SWAP5 DUP7 DUP2 DUP2 DUP8 ADD SWAP8 PUSH2 0x610 DUP2 DUP4 DUP12 PUSH2 0x1075 JUMP JUMPDEST DUP2 ADD PUSH1 0x0 DUP2 MSTORE SUB ADD SWAP1 KECCAK256 PUSH1 0x40 MLOAD SWAP1 PUSH2 0xC55 DUP3 PUSH2 0x111F JUMP JUMPDEST PUSH1 0x40 MLOAD PUSH2 0xC66 DUP2 PUSH2 0x6A9 DUP2 DUP6 PUSH2 0x1694 JUMP JUMPDEST DUP3 MSTORE PUSH1 0x40 MLOAD PUSH2 0xC7C DUP2 PUSH2 0x6A9 DUP2 PUSH1 0x1 DUP7 ADD PUSH2 0x1694 JUMP JUMPDEST PUSH1 0x20 DUP4 ADD MSTORE PUSH1 0x40 MLOAD PUSH2 0xC95 DUP2 PUSH2 0x6A9 DUP2 PUSH1 0x2 DUP7 ADD PUSH2 0x1694 JUMP JUMPDEST PUSH1 0x40 DUP4 ADD MSTORE PUSH1 0x40 MLOAD PUSH2 0xCAE DUP2 PUSH2 0x6A9 DUP2 PUSH1 0x3 DUP7 ADD PUSH2 0x1694 JUMP JUMPDEST PUSH1 0x60 DUP4 ADD MSTORE PUSH2 0xCBF PUSH1 0x4 DUP3 ADD PUSH2 0x172A JUMP JUMPDEST PUSH1 0x80 DUP4 ADD MSTORE PUSH2 0xCD0 PUSH1 0x5 DUP3 ADD PUSH2 0x172A JUMP JUMPDEST PUSH1 0xA0 DUP4 ADD MSTORE PUSH1 0xFF PUSH1 0x6 DUP3 ADD SLOAD AND PUSH1 0x4 DUP2 LT ISZERO PUSH2 0xE3E JUMPI PUSH1 0xFF SWAP2 PUSH1 0xB SWAP2 PUSH1 0xC0 DUP6 ADD MSTORE PUSH1 0x40 MLOAD PUSH2 0xD05 DUP2 PUSH2 0x6A9 DUP2 PUSH1 0x7 DUP7 ADD PUSH2 0x1694 JUMP JUMPDEST PUSH1 0xE0 DUP6 ADD MSTORE PUSH1 0x1 DUP1 PUSH1 0xA0 SHL SUB PUSH1 0x8 DUP3 ADD SLOAD AND PUSH2 0x100 DUP6 ADD MSTORE PUSH1 0x9 DUP2 ADD SLOAD PUSH2 0x120 DUP6 ADD MSTORE PUSH1 0xA DUP2 ADD SLOAD PUSH2 0x140 DUP6 ADD MSTORE ADD SLOAD AND ISZERO ISZERO PUSH2 0x160 DUP3 ADD MSTORE PUSH1 0x40 MLOAD DUP1 SWAP2 PUSH1 0x20 DUP3 MSTORE PUSH2 0x160 PUSH2 0xE05 PUSH2 0xD65 DUP4 MLOAD PUSH2 0x180 PUSH1 0x20 DUP8 ADD MSTORE PUSH2 0x1A0 DUP7 ADD SWAP1 PUSH2 0x1098 JUMP JUMPDEST PUSH2 0xDDD PUSH2 0xDC9 PUSH2 0xDB5 PUSH2 0xDA1 PUSH2 0xD8D PUSH1 0x20 DUP10 ADD MLOAD SWAP6 PUSH1 0x1F NOT SWAP7 DUP8 DUP13 DUP4 SUB ADD PUSH1 0x40 DUP14 ADD MSTORE PUSH2 0x1098 JUMP JUMPDEST PUSH1 0x40 DUP10 ADD MLOAD DUP7 DUP12 DUP4 SUB ADD PUSH1 0x60 DUP13 ADD MSTORE PUSH2 0x1098 JUMP JUMPDEST PUSH1 0x60 DUP9 ADD MLOAD DUP6 DUP11 DUP4 SUB ADD PUSH1 0x80 DUP12 ADD MSTORE PUSH2 0x1098 JUMP JUMPDEST PUSH1 0x80 DUP8 ADD MLOAD DUP5 DUP10 DUP4 SUB ADD PUSH1 0xA0 DUP11 ADD MSTORE PUSH2 0x11C8 JUMP JUMPDEST PUSH1 0xA0 DUP7 ADD MLOAD DUP4 DUP9 DUP4 SUB ADD PUSH1 0xC0 DUP10 ADD MSTORE PUSH2 0x11C8 JUMP JUMPDEST SWAP1 PUSH2 0xDF0 PUSH1 0xC0 DUP7 ADD MLOAD PUSH1 0xE0 DUP9 ADD SWAP1 PUSH2 0x1224 JUMP JUMPDEST PUSH1 0xE0 DUP6 ADD MLOAD SWAP1 DUP7 DUP4 SUB ADD PUSH2 0x100 DUP8 ADD MSTORE PUSH2 0x1098 JUMP JUMPDEST SWAP2 PUSH1 0x1 DUP1 PUSH1 0xA0 SHL SUB PUSH2 0x100 DUP3 ADD MLOAD AND PUSH2 0x120 DUP6 ADD MSTORE PUSH2 0x120 DUP2 ADD MLOAD PUSH2 0x140 DUP6 ADD MSTORE PUSH2 0x140 DUP2 ADD MLOAD DUP3 DUP6 ADD MSTORE ADD MLOAD ISZERO ISZERO PUSH2 0x180 DUP4 ADD MSTORE SUB SWAP1 RETURN JUMPDEST PUSH4 0x4E487B71 PUSH1 0xE0 SHL PUSH1 0x0 MSTORE PUSH1 0x21 PUSH1 0x4 MSTORE PUSH1 0x24 PUSH1 0x0 REVERT JUMPDEST CALLVALUE PUSH2 0x102 JUMPI PUSH1 0x20 CALLDATASIZE PUSH1 0x3 NOT ADD SLT PUSH2 0x102 JUMPI PUSH1 0x4 CALLDATALOAD PUSH1 0x1 PUSH1 0x1 PUSH1 0x40 SHL SUB DUP2 GT PUSH2 0x102 JUMPI PUSH1 0xFF PUSH1 0xB PUSH2 0xE8E PUSH1 0x20 PUSH2 0xD0 DUP2 SWAP6 CALLDATASIZE SWAP1 PUSH1 0x4 ADD PUSH2 0x1172 JUMP JUMPDEST DUP2 ADD PUSH1 0x0 DUP2 MSTORE SUB ADD SWAP1 KECCAK256 ADD SLOAD AND PUSH1 0x40 MLOAD SWAP1 ISZERO ISZERO DUP2 MSTORE RETURN JUMPDEST CALLVALUE PUSH2 0x102 JUMPI PUSH1 0x40 CALLDATASIZE PUSH1 0x3 NOT ADD SLT PUSH2 0x102 JUMPI PUSH1 0x4 CALLDATALOAD PUSH1 0x1 PUSH1 0x1 PUSH1 0x40 SHL SUB DUP2 GT PUSH2 0x102 JUMPI PUSH2 0xED5 SWAP1 CALLDATASIZE SWAP1 PUSH1 0x4 ADD PUSH2 0x1172 JUMP JUMPDEST PUSH1 0x24 CALLDATALOAD PUSH1 0x4 DUP2 LT ISZERO PUSH2 0x102 JUMPI PUSH1 0x60 PUSH1 0xFF PUSH2 0xF97 PUSH32 0x80CC2723CEE5A90217C666F435781B7F6FA6431FDBEA26123A8BB0F354CDA321 SWAP4 PUSH2 0xF8D PUSH2 0xF80 PUSH2 0xF58 PUSH1 0x20 DUP10 PUSH2 0xF32 DUP9 PUSH1 0xB PUSH1 0x40 MLOAD DUP6 DUP2 DUP2 DUP8 MLOAD SWAP8 ADD SWAP7 PUSH2 0x610 DUP2 DUP4 DUP11 PUSH2 0x1075 JUMP JUMPDEST PUSH2 0xF47 PUSH1 0x40 MLOAD PUSH1 0x8 DUP14 MLOAD PUSH2 0x637 DUP2 DUP5 DUP8 PUSH2 0x1075 JUMP JUMPDEST PUSH1 0x40 MLOAD DUP1 SWAP4 DUP2 SWAP3 DUP14 MLOAD SWAP3 DUP4 SWAP2 PUSH2 0x1075 JUMP JUMPDEST DUP2 ADD PUSH1 0x0 DUP2 MSTORE SUB ADD SWAP1 KECCAK256 SWAP8 PUSH1 0x6 DUP10 ADD SWAP9 DUP10 SLOAD SWAP10 DUP8 DUP7 AND DUP9 NOT DUP13 AND OR SWAP1 SSTORE PUSH1 0xA TIMESTAMP SWAP2 ADD SSTORE PUSH2 0x15F3 JUMP JUMPDEST SWAP7 PUSH1 0x40 MLOAD SWAP5 DUP6 SWAP2 AND PUSH2 0x1224 JUMP JUMPDEST PUSH1 0x20 DUP4 ADD SWAP1 PUSH2 0x1224 JUMP JUMPDEST TIMESTAMP PUSH1 0x40 DUP3 ADD MSTORE LOG2 STOP JUMPDEST CALLVALUE PUSH2 0x102 JUMPI PUSH1 0x20 CALLDATASIZE PUSH1 0x3 NOT ADD SLT PUSH2 0x102 JUMPI PUSH1 0x4 CALLDATALOAD PUSH1 0x1 PUSH1 0x1 PUSH1 0xA0 SHL SUB DUP2 AND SWAP1 DUP2 SWAP1 SUB PUSH2 0x102 JUMPI PUSH1 0x0 MSTORE PUSH1 0x1 PUSH1 0x20 MSTORE PUSH2 0xFE PUSH2 0xF2 PUSH1 0x40 PUSH1 0x0 KECCAK256 PUSH2 0x172A JUMP JUMPDEST CALLVALUE PUSH2 0x102 JUMPI PUSH1 0x0 CALLDATASIZE PUSH1 0x3 NOT ADD SLT PUSH2 0x102 JUMPI PUSH1 0x3 SLOAD PUSH2 0xFFB DUP2 PUSH2 0x1231 JUMP JUMPDEST PUSH2 0x1008 PUSH1 0x40 MLOAD SWAP2 DUP3 PUSH2 0x1151 JUMP JUMPDEST DUP2 DUP2 MSTORE PUSH1 0x20 SWAP2 DUP3 DUP3 ADD PUSH1 0x3 PUSH1 0x0 MSTORE PUSH32 0xC2575A0E9E593C00F959F8C92F12DB2869C3395A3B0502D05E2516446F71F85B SWAP4 PUSH1 0x0 SWAP2 JUMPDEST DUP4 DUP4 LT PUSH2 0x1051 JUMPI PUSH1 0x40 MLOAD DUP1 PUSH2 0xFE DUP8 DUP3 PUSH2 0x10BD JUMP JUMPDEST PUSH1 0x1 DUP3 DUP2 SWAP3 PUSH1 0x40 MLOAD PUSH2 0x1067 DUP2 PUSH2 0x6A9 DUP2 DUP14 PUSH2 0x1694 JUMP JUMPDEST DUP2 MSTORE ADD SWAP7 ADD SWAP3 ADD SWAP2 SWAP5 PUSH2 0x103C JUMP JUMPDEST PUSH1 0x0 JUMPDEST DUP4 DUP2 LT PUSH2 0x1088 JUMPI POP POP PUSH1 0x0 SWAP2 ADD MSTORE JUMP JUMPDEST DUP2 DUP2 ADD MLOAD DUP4 DUP3 ADD MSTORE PUSH1 0x20 ADD PUSH2 0x1078 JUMP JUMPDEST SWAP1 PUSH1 0x20 SWAP2 PUSH2 0x10B1 DUP2 MLOAD DUP1 SWAP3 DUP2 DUP6 MSTORE DUP6 DUP1 DUP7 ADD SWAP2 ADD PUSH2 0x1075 JUMP JUMPDEST PUSH1 0x1F ADD PUSH1 0x1F NOT AND ADD ADD SWAP1 JUMP JUMPDEST PUSH1 0x20 DUP1 DUP3 ADD SWAP1 DUP1 DUP4 MSTORE DUP4 MLOAD DUP1 SWAP3 MSTORE PUSH1 0x40 DUP4 ADD SWAP3 DUP2 PUSH1 0x40 DUP5 PUSH1 0x5 SHL DUP4 ADD ADD SWAP6 ADD SWAP4 PUSH1 0x0 SWAP2 JUMPDEST DUP5 DUP4 LT PUSH2 0x10F1 JUMPI POP POP POP POP POP POP SWAP1 JUMP JUMPDEST SWAP1 SWAP2 SWAP3 SWAP4 SWAP5 SWAP6 DUP5 DUP1 PUSH2 0x110F PUSH1 0x1 SWAP4 PUSH1 0x3F NOT DUP7 DUP3 SUB ADD DUP8 MSTORE DUP11 MLOAD PUSH2 0x1098 JUMP JUMPDEST SWAP9 ADD SWAP4 ADD SWAP4 ADD SWAP2 SWAP5 SWAP4 SWAP3 SWAP1 PUSH2 0x10E1 JUMP JUMPDEST PUSH2 0x180 DUP2 ADD SWAP1 DUP2 LT PUSH1 0x1 PUSH1 0x1 PUSH1 0x40 SHL SUB DUP3 GT OR PUSH2 0x113B JUMPI PUSH1 0x40 MSTORE JUMP JUMPDEST PUSH4 0x4E487B71 PUSH1 0xE0 SHL PUSH1 0x0 MSTORE PUSH1 0x41 PUSH1 0x4 MSTORE PUSH1 0x24 PUSH1 0x0 REVERT JUMPDEST SWAP1 PUSH1 0x1F DUP1 NOT SWAP2 ADD AND DUP2 ADD SWAP1 DUP2 LT PUSH1 0x1 PUSH1 0x1 PUSH1 0x40 SHL SUB DUP3 GT OR PUSH2 0x113B JUMPI PUSH1 0x40 MSTORE JUMP JUMPDEST DUP2 PUSH1 0x1F DUP3 ADD SLT ISZERO PUSH2 0x102 JUMPI DUP1 CALLDATALOAD SWAP1 PUSH1 0x1 PUSH1 0x1 PUSH1 0x40 SHL SUB DUP3 GT PUSH2 0x113B JUMPI PUSH1 0x40 MLOAD SWAP3 PUSH2 0x11A6 PUSH1 0x1F DUP5 ADD PUSH1 0x1F NOT AND PUSH1 0x20 ADD DUP6 PUSH2 0x1151 JUMP JUMPDEST DUP3 DUP5 MSTORE PUSH1 0x20 DUP4 DUP4 ADD ADD GT PUSH2 0x102 JUMPI DUP2 PUSH1 0x0 SWAP3 PUSH1 0x20 DUP1 SWAP4 ADD DUP4 DUP7 ADD CALLDATACOPY DUP4 ADD ADD MSTORE SWAP1 JUMP JUMPDEST SWAP1 DUP1 DUP3 MLOAD SWAP1 DUP2 DUP2 MSTORE PUSH1 0x20 DUP1 SWAP2 ADD SWAP3 DUP2 DUP1 DUP5 PUSH1 0x5 SHL DUP4 ADD ADD SWAP6 ADD SWAP4 PUSH1 0x0 SWAP2 JUMPDEST DUP5 DUP4 LT PUSH2 0x11F6 JUMPI POP POP POP POP POP POP SWAP1 JUMP JUMPDEST SWAP1 SWAP2 SWAP3 SWAP4 SWAP5 SWAP6 DUP5 DUP1 PUSH2 0x1214 PUSH1 0x1 SWAP4 PUSH1 0x1F NOT DUP7 DUP3 SUB ADD DUP8 MSTORE DUP11 MLOAD PUSH2 0x1098 JUMP JUMPDEST SWAP9 ADD SWAP4 ADD SWAP4 ADD SWAP2 SWAP5 SWAP4 SWAP3 SWAP1 PUSH2 0x11E6 JUMP JUMPDEST SWAP1 PUSH1 0x4 DUP3 LT ISZERO PUSH2 0xE3E JUMPI MSTORE JUMP JUMPDEST PUSH1 0x1 PUSH1 0x1 PUSH1 0x40 SHL SUB DUP2 GT PUSH2 0x113B JUMPI PUSH1 0x5 SHL PUSH1 0x20 ADD SWAP1 JUMP JUMPDEST SWAP1 DUP1 PUSH1 0x1F DUP4 ADD SLT ISZERO PUSH2 0x102 JUMPI DUP2 CALLDATALOAD SWAP1 PUSH2 0x1260 DUP3 PUSH2 0x1231 JUMP JUMPDEST SWAP3 PUSH2 0x126E PUSH1 0x40 MLOAD SWAP5 DUP6 PUSH2 0x1151 JUMP JUMPDEST DUP3 DUP5 MSTORE PUSH1 0x20 SWAP3 DUP4 DUP1 DUP7 ADD SWAP2 PUSH1 0x5 SHL DUP4 ADD ADD SWAP3 DUP1 DUP5 GT PUSH2 0x102 JUMPI DUP5 DUP4 ADD SWAP2 JUMPDEST DUP5 DUP4 LT PUSH2 0x129C JUMPI POP POP POP POP POP POP SWAP1 JUMP JUMPDEST DUP3 CALLDATALOAD PUSH1 0x1 PUSH1 0x1 PUSH1 0x40 SHL SUB DUP2 GT PUSH2 0x102 JUMPI DUP7 SWAP2 PUSH2 0x12BD DUP5 DUP5 DUP1 SWAP5 DUP10 ADD ADD PUSH2 0x1172 JUMP JUMPDEST DUP2 MSTORE ADD SWAP3 ADD SWAP2 PUSH2 0x128C JUMP JUMPDEST PUSH1 0x20 PUSH2 0x12E1 SWAP2 DUP2 PUSH1 0x40 MLOAD SWAP4 DUP3 DUP6 DUP1 SWAP5 MLOAD SWAP4 DUP5 SWAP3 ADD PUSH2 0x1075 JUMP JUMPDEST DUP2 ADD PUSH1 0x2 DUP2 MSTORE SUB ADD SWAP1 KECCAK256 SWAP1 JUMP JUMPDEST SWAP1 PUSH1 0x1 DUP3 DUP2 SHR SWAP3 AND DUP1 ISZERO PUSH2 0x131E JUMPI JUMPDEST PUSH1 0x20 DUP4 LT EQ PUSH2 0x1308 JUMPI JUMP JUMPDEST PUSH4 0x4E487B71 PUSH1 0xE0 SHL PUSH1 0x0 MSTORE PUSH1 0x22 PUSH1 0x4 MSTORE PUSH1 0x24 PUSH1 0x0 REVERT JUMPDEST SWAP2 PUSH1 0x7F AND SWAP2 PUSH2 0x12FD JUMP JUMPDEST DUP2 DUP2 LT PUSH2 0x1333 JUMPI POP POP JUMP JUMPDEST PUSH1 0x0 DUP2 SSTORE PUSH1 0x1 ADD PUSH2 0x1328 JUMP JUMPDEST SWAP2 SWAP1 PUSH1 0x1F DUP2 GT PUSH2 0x134E JUMPI POP POP POP JUMP JUMPDEST PUSH2 0x137A SWAP3 PUSH1 0x0 MSTORE PUSH1 0x20 PUSH1 0x0 KECCAK256 SWAP1 PUSH1 0x20 PUSH1 0x1F DUP5 ADD PUSH1 0x5 SHR DUP4 ADD SWAP4 LT PUSH2 0x137C JUMPI JUMPDEST PUSH1 0x1F ADD PUSH1 0x5 SHR ADD SWAP1 PUSH2 0x1328 JUMP JUMPDEST JUMP JUMPDEST SWAP1 SWAP2 POP DUP2 SWAP1 PUSH2 0x136D JUMP JUMPDEST SWAP2 SWAP1 SWAP2 DUP3 MLOAD PUSH1 0x1 PUSH1 0x1 PUSH1 0x40 SHL SUB DUP2 GT PUSH2 0x113B JUMPI PUSH2 0x13AD DUP2 PUSH2 0x13A7 DUP5 SLOAD PUSH2 0x12EE JUMP JUMPDEST DUP5 PUSH2 0x133F JUMP JUMPDEST PUSH1 0x20 DUP1 PUSH1 0x1F DUP4 GT PUSH1 0x1 EQ PUSH2 0x13E9 JUMPI POP DUP2 SWAP3 SWAP4 SWAP5 PUSH1 0x0 SWAP3 PUSH2 0x13DE JUMPI JUMPDEST POP POP DUP2 PUSH1 0x1 SHL SWAP2 PUSH1 0x0 NOT SWAP1 PUSH1 0x3 SHL SHR NOT AND OR SWAP1 SSTORE JUMP JUMPDEST ADD MLOAD SWAP1 POP CODESIZE DUP1 PUSH2 0x13C8 JUMP JUMPDEST SWAP1 PUSH1 0x1F NOT DUP4 AND SWAP6 DUP5 PUSH1 0x0 MSTORE DUP3 PUSH1 0x0 KECCAK256 SWAP3 PUSH1 0x0 SWAP1 JUMPDEST DUP9 DUP3 LT PUSH2 0x1435 JUMPI POP POP DUP4 PUSH1 0x1 SWAP6 SWAP7 SWAP8 LT PUSH2 0x141C JUMPI JUMPDEST POP POP POP DUP2 SHL ADD SWAP1 SSTORE JUMP JUMPDEST ADD MLOAD PUSH1 0x0 NOT PUSH1 0xF8 DUP5 PUSH1 0x3 SHL AND SHR NOT AND SWAP1 SSTORE CODESIZE DUP1 DUP1 PUSH2 0x1412 JUMP JUMPDEST DUP1 PUSH1 0x1 DUP6 SWAP7 DUP3 SWAP5 SWAP7 DUP7 ADD MLOAD DUP2 SSTORE ADD SWAP6 ADD SWAP4 ADD SWAP1 PUSH2 0x13FD JUMP JUMPDEST PUSH2 0x1457 DUP2 SLOAD PUSH2 0x12EE JUMP JUMPDEST SWAP1 DUP2 PUSH2 0x1461 JUMPI POP POP JUMP JUMPDEST DUP2 PUSH1 0x1F PUSH1 0x0 SWAP4 GT PUSH1 0x1 EQ PUSH2 0x1473 JUMPI POP SSTORE JUMP JUMPDEST SWAP1 DUP1 DUP4 SWAP2 DUP3 MSTORE PUSH2 0x1492 PUSH1 0x1F PUSH1 0x20 DUP5 KECCAK256 SWAP5 ADD PUSH1 0x5 SHR DUP5 ADD PUSH1 0x1 DUP6 ADD PUSH2 0x1328 JUMP JUMPDEST SSTORE SSTORE JUMP JUMPDEST SWAP1 PUSH2 0x14A5 JUMPI PUSH2 0x1457 DUP2 SLOAD PUSH2 0x12EE JUMP JUMPDEST PUSH4 0x4E487B71 PUSH1 0xE0 SHL PUSH1 0x0 MSTORE PUSH1 0x0 PUSH1 0x4 MSTORE PUSH1 0x24 PUSH1 0x0 REVERT JUMPDEST DUP1 SLOAD SWAP1 PUSH1 0x0 DUP2 SSTORE DUP2 PUSH2 0x14CB JUMPI POP POP JUMP JUMPDEST PUSH1 0x0 MSTORE PUSH1 0x20 PUSH1 0x0 KECCAK256 SWAP1 DUP2 ADD SWAP1 JUMPDEST DUP2 DUP2 LT PUSH2 0x14E3 JUMPI POP POP JUMP JUMPDEST DUP1 PUSH2 0x14EF PUSH1 0x1 SWAP3 PUSH2 0x144D JUMP JUMPDEST ADD PUSH2 0x14D8 JUMP JUMPDEST SWAP1 PUSH1 0x1 PUSH1 0x40 SHL DUP2 GT PUSH2 0x113B JUMPI DUP2 SLOAD SWAP2 DUP2 DUP2 SSTORE DUP3 DUP3 LT PUSH2 0x1513 JUMPI POP POP POP JUMP JUMPDEST PUSH1 0x0 MSTORE PUSH1 0x20 PUSH1 0x0 KECCAK256 SWAP2 DUP3 ADD SWAP2 ADD JUMPDEST DUP2 DUP2 LT PUSH2 0x152C JUMPI POP POP JUMP JUMPDEST DUP1 PUSH2 0x1538 PUSH1 0x1 SWAP3 PUSH2 0x144D JUMP JUMPDEST ADD PUSH2 0x1521 JUMP JUMPDEST PUSH1 0x3 SLOAD DUP2 LT ISZERO PUSH2 0x1575 JUMPI PUSH1 0x3 PUSH1 0x0 MSTORE PUSH32 0xC2575A0E9E593C00F959F8C92F12DB2869C3395A3B0502D05E2516446F71F85B ADD SWAP1 PUSH1 0x0 SWAP1 JUMP JUMPDEST PUSH4 0x4E487B71 PUSH1 0xE0 SHL PUSH1 0x0 MSTORE PUSH1 0x32 PUSH1 0x4 MSTORE PUSH1 0x24 PUSH1 0x0 REVERT JUMPDEST DUP1 SLOAD DUP3 LT ISZERO PUSH2 0x1575 JUMPI PUSH1 0x0 MSTORE PUSH1 0x20 PUSH1 0x0 KECCAK256 ADD SWAP1 PUSH1 0x0 SWAP1 JUMP JUMPDEST DUP1 SLOAD PUSH1 0x1 PUSH1 0x40 SHL DUP2 LT ISZERO PUSH2 0x113B JUMPI PUSH2 0x15C0 SWAP2 PUSH1 0x1 DUP3 ADD DUP2 SSTORE PUSH2 0x158B JUMP JUMPDEST SWAP2 SWAP1 SWAP2 PUSH2 0x14A5 JUMPI PUSH2 0x137A SWAP2 PUSH2 0x1386 JUMP JUMPDEST PUSH1 0x0 NOT DUP2 EQ PUSH2 0xAF9 JUMPI PUSH1 0x1 ADD SWAP1 JUMP JUMPDEST DUP1 MLOAD DUP3 LT ISZERO PUSH2 0x1575 JUMPI PUSH1 0x20 SWAP2 PUSH1 0x5 SHL ADD ADD SWAP1 JUMP JUMPDEST PUSH2 0x160B SWAP1 PUSH1 0x20 PUSH1 0x40 MLOAD SWAP3 DUP3 DUP5 DUP1 SWAP5 MLOAD SWAP4 DUP5 SWAP3 ADD PUSH2 0x1075 JUMP JUMPDEST DUP2 ADD SUB SWAP1 KECCAK256 SWAP1 JUMP JUMPDEST ISZERO PUSH2 0x161A JUMPI JUMP JUMPDEST PUSH1 0x40 MLOAD PUSH3 0x461BCD PUSH1 0xE5 SHL DUP2 MSTORE PUSH1 0x20 PUSH1 0x4 DUP3 ADD MSTORE PUSH1 0x14 PUSH1 0x24 DUP3 ADD MSTORE PUSH20 0x1059D95B9D08191BD95CC81B9BDD08195E1A5CDD PUSH1 0x62 SHL PUSH1 0x44 DUP3 ADD MSTORE PUSH1 0x64 SWAP1 REVERT JUMPDEST ISZERO PUSH2 0x165D JUMPI JUMP JUMPDEST PUSH1 0x40 MLOAD PUSH3 0x461BCD PUSH1 0xE5 SHL DUP2 MSTORE PUSH1 0x20 PUSH1 0x4 DUP3 ADD MSTORE PUSH1 0xF PUSH1 0x24 DUP3 ADD MSTORE PUSH15 0x2737BA1030B3B2B73A1037BBB732B9 PUSH1 0x89 SHL PUSH1 0x44 DUP3 ADD MSTORE PUSH1 0x64 SWAP1 REVERT JUMPDEST SWAP1 PUSH1 0x0 SWAP3 SWAP2 DUP1 SLOAD SWAP2 PUSH2 0x16A5 DUP4 PUSH2 0x12EE JUMP JUMPDEST SWAP2 DUP3 DUP3 MSTORE PUSH1 0x1 SWAP4 DUP5 DUP2 AND SWAP1 DUP2 PUSH1 0x0 EQ PUSH2 0x1707 JUMPI POP PUSH1 0x1 EQ PUSH2 0x16C7 JUMPI JUMPDEST POP POP POP POP JUMP JUMPDEST SWAP1 SWAP2 SWAP4 SWAP5 POP PUSH1 0x0 MSTORE PUSH1 0x20 SWAP3 DUP4 PUSH1 0x0 KECCAK256 SWAP3 DUP5 PUSH1 0x0 SWAP5 JUMPDEST DUP4 DUP7 LT PUSH2 0x16F3 JUMPI POP POP POP POP ADD ADD SWAP1 CODESIZE DUP1 DUP1 DUP1 PUSH2 0x16C1 JUMP JUMPDEST DUP1 SLOAD DUP6 DUP8 ADD DUP4 ADD MSTORE SWAP5 ADD SWAP4 DUP6 SWAP1 DUP3 ADD PUSH2 0x16DC JUMP JUMPDEST SWAP3 SWAP5 POP POP POP PUSH1 0x20 SWAP4 SWAP5 POP PUSH1 0xFF NOT AND DUP4 DUP4 ADD MSTORE ISZERO ISZERO PUSH1 0x5 SHL ADD ADD SWAP1 CODESIZE DUP1 DUP1 DUP1 PUSH2 0x16C1 JUMP JUMPDEST SWAP1 DUP2 SLOAD PUSH2 0x1736 DUP2 PUSH2 0x1231 JUMP JUMPDEST SWAP3 PUSH1 0x40 SWAP4 PUSH2 0x1746 DUP6 MLOAD SWAP2 DUP3 PUSH2 0x1151 JUMP JUMPDEST DUP3 DUP2 MSTORE DUP1 SWAP5 PUSH1 0x20 DUP1 SWAP3 ADD SWAP3 PUSH1 0x0 MSTORE DUP2 PUSH1 0x0 KECCAK256 SWAP1 PUSH1 0x0 SWAP4 JUMPDEST DUP6 DUP6 LT PUSH2 0x176C JUMPI POP POP POP POP POP POP JUMP JUMPDEST PUSH1 0x1 DUP5 DUP2 SWAP3 DUP5 MLOAD PUSH2 0x1781 DUP2 PUSH2 0x6A9 DUP2 DUP11 PUSH2 0x1694 JUMP JUMPDEST DUP2 MSTORE ADD SWAP4 ADD SWAP5 ADD SWAP4 SWAP2 PUSH2 0x175D JUMP JUMPDEST SWAP1 DUP1 DUP3 EQ PUSH2 0x1867 JUMPI PUSH2 0x17A1 DUP2 SLOAD PUSH2 0x12EE JUMP JUMPDEST SWAP1 PUSH1 0x1 PUSH1 0x1 PUSH1 0x40 SHL SUB DUP3 GT PUSH2 0x113B JUMPI DUP2 SWAP1 PUSH2 0x17C6 DUP3 PUSH2 0x17C0 DUP7 SLOAD PUSH2 0x12EE JUMP JUMPDEST DUP7 PUSH2 0x133F JUMP JUMPDEST PUSH1 0x0 SWAP1 PUSH1 0x1F DUP4 GT PUSH1 0x1 EQ PUSH2 0x17FC JUMPI PUSH1 0x0 SWAP3 PUSH2 0x17F1 JUMPI POP POP DUP2 PUSH1 0x1 SHL SWAP2 PUSH1 0x0 NOT SWAP1 PUSH1 0x3 SHL SHR NOT AND OR SWAP1 SSTORE JUMP JUMPDEST ADD SLOAD SWAP1 POP CODESIZE DUP1 PUSH2 0x13C8 JUMP JUMPDEST DUP2 MSTORE PUSH1 0x20 DUP1 DUP3 KECCAK256 DUP6 DUP4 MSTORE DUP2 DUP4 KECCAK256 SWAP4 POP SWAP1 PUSH1 0x1F NOT DUP6 AND SWAP1 DUP4 SWAP1 JUMPDEST DUP3 DUP3 LT PUSH2 0x184E JUMPI POP POP SWAP1 DUP5 PUSH1 0x1 SWAP6 SWAP5 SWAP4 SWAP3 LT PUSH2 0x1835 JUMPI POP POP POP DUP2 SHL ADD SWAP1 SSTORE JUMP JUMPDEST ADD SLOAD PUSH1 0x0 NOT PUSH1 0xF8 DUP5 PUSH1 0x3 SHL AND SHR NOT AND SWAP1 SSTORE CODESIZE DUP1 DUP1 PUSH2 0x1412 JUMP JUMPDEST DUP5 SWAP6 DUP2 SWAP3 SWAP6 DUP6 ADD SLOAD DUP2 SSTORE PUSH1 0x1 DUP1 SWAP2 ADD SWAP7 ADD SWAP5 ADD SWAP1 PUSH2 0x1815 JUMP JUMPDEST POP POP JUMP JUMPDEST SWAP2 SWAP1 PUSH2 0x14A5 JUMPI PUSH2 0x137A SWAP2 PUSH2 0x178F JUMP JUMPDEST DUP1 SLOAD DUP1 ISZERO PUSH2 0xAE3 JUMPI PUSH1 0x0 NOT ADD SWAP1 PUSH2 0x1894 PUSH2 0xAD0 DUP4 DUP4 PUSH2 0x158B JUMP JUMPDEST SSTORE JUMP JUMPDEST PUSH1 0x40 DUP1 MLOAD DUP3 DUP2 DUP1 SWAP5 MLOAD PUSH2 0x18B0 DUP2 PUSH1 0x20 SWAP8 DUP9 DUP1 SWAP7 ADD PUSH2 0x1075 JUMP JUMPDEST DUP2 ADD PUSH1 0x2 DUP2 MSTORE SUB ADD SWAP1 KECCAK256 SWAP2 PUSH1 0x0 SWAP1 DUP2 JUMPDEST DUP5 SLOAD DUP1 DUP3 LT ISZERO PUSH2 0x1942 JUMPI PUSH2 0x6A9 PUSH2 0x18E6 PUSH2 0x18DA DUP5 DUP10 PUSH2 0x158B JUMP JUMPDEST POP DUP8 MLOAD SWAP3 DUP4 DUP1 SWAP3 PUSH2 0x1694 JUMP JUMPDEST DUP4 DUP2 MLOAD SWAP2 ADD KECCAK256 DUP8 MLOAD DUP5 DUP10 ADD KECCAK256 EQ PUSH2 0x1906 JUMPI POP PUSH2 0x1901 SWAP1 PUSH2 0x15D0 JUMP JUMPDEST PUSH2 0x18C0 JUMP JUMPDEST SWAP4 POP SWAP4 SWAP5 POP POP PUSH1 0x0 NOT DUP3 ADD SWAP2 DUP3 GT PUSH2 0x192E JUMPI POP DUP3 SWAP2 PUSH2 0xAA1 PUSH2 0xB76 PUSH2 0xB7E SWAP4 PUSH2 0x137A SWAP7 PUSH2 0x158B JUMP JUMPDEST PUSH4 0x4E487B71 PUSH1 0xE0 SHL DUP2 MSTORE PUSH1 0x11 PUSH1 0x4 MSTORE PUSH1 0x24 SWAP1 REVERT JUMPDEST POP POP POP POP POP POP POP JUMP INVALID LOG2 PUSH5 0x6970667358 0x22 SLT KECCAK256 0xE7 0x2C 0xAA DELEGATECALL 0x5D SWAP4 CALLVALUE 0xB5 SWAP4 TIMESTAMP XOR CALLER LT SWAP12 ADDRESS 0xA5 DUP12 GASLIMIT 0xC8 PUSH22 0x8EFB0F37D3E51A2569C4A1164736F6C634300081400 CALLER "},"methodIdentifiers":{"agentExistsCheck(string)":"56ce6b6c","getAgent(string)":"794464e9","getAgentCount()":"91cab63e","getAgentStatus(string)":"9971dfe6","getAgentsByCapability(string)":"cc62097a","getAgentsByOwner(address)":"1ab6f888","getAllAgentIds()":"1136a595","registerAgent(string,string,string,string,string[],string[],string)":"c40b8631","unregisterAgent(string)":"811f315d","updateAgent(string,string,string,string[],string[])":"ae9e12be","updateAgentStatus(string,uint8)":"231f4982"}}}}}