{"src/UACPEvents.sol":{"UACPEvents":{"abi":[{"anonymous":false,"inputs":[{"indexed":true,"internalType":"string","name":"messageId","type":"string"},{"indexed":true,"internalType":"string","name":"sender","type":"string"},{"indexed":true,"internalType":"string","name":"recipient","type":"string"},{"indexed":false,"internalType":"string","name":"intent","type":"string"},{"indexed":false,"internalType":"uint256","name":"timestamp","type":"uint256"}],"name":"MessageLogged","type":"event"},{"anonymous":false,"inputs":[{"indexed":true,"internalType":"string","name":"messageId","type":"string"},{"indexed":true,"internalType":"string","name":"correlationId","type":"string"},{"indexed":false,"internalType":"bool","name":"success","type":"bool"},{"indexed":false,"internalType":"uint256","name":"timestamp","type":"uint256"}],"name":"MessageResponseLogged","type":"event"},{"anonymous":false,"inputs":[{"indexed":true,"internalType":"string","name":"messageId","type":"string"},{"indexed":false,"internalType":"string","name":"transactionHash","type":"string"},{"indexed":false,"internalType":"uint256","name":"amount","type":"uint256"},{"indexed":false,"internalType":"uint256","name":"timestamp","type":"uint256"}],"name":"PaymentLogged","type":"event"},{"inputs":[{"internalType":"string","name":"_agentId","type":"string"}],"name":"getAgentMessages","outputs":[{"internalType":"string[]","name":"","type":"string[]"}],"stateMutability":"view","type":"function"},{"inputs":[],"name":"getAllMessageIds","outputs":[{"internalType":"string[]","name":"","type":"string[]"}],"stateMutability":"view","type":"function"},{"inputs":[{"internalType":"string","name":"_messageId","type":"string"}],"name":"getMessage","outputs":[{"components":[{"internalType":"string","name":"messageId","type":"string"},{"internalType":"uint256","name":"timestamp","type":"uint256"},{"internalType":"string","name":"sender","type":"string"},{"internalType":"string","name":"recipient","type":"string"},{"internalType":"string","name":"intent","type":"string"},{"internalType":"enum UACPEvents.MessageType","name":"messageType","type":"uint8"},{"internalType":"enum UACPEvents.MessagePriority","name":"priority","type":"uint8"},{"internalType":"bool","name":"paymentRequired","type":"bool"},{"internalType":"uint256","name":"blockNumber","type":"uint256"},{"internalType":"address","name":"logger","type":"address"}],"internalType":"struct UACPEvents.MessageEvent","name":"","type":"tuple"}],"stateMutability":"view","type":"function"},{"inputs":[],"name":"getMessageCount","outputs":[{"internalType":"uint256","name":"","type":"uint256"}],"stateMutability":"view","type":"function"},{"inputs":[{"internalType":"string","name":"_messageId","type":"string"}],"name":"getPayment","outputs":[{"components":[{"internalType":"string","name":"messageId","type":"string"},{"internalType":"string","name":"transactionHash","type":"string"},{"internalType":"string","name":"asset","type":"string"},{"internalType":"uint256","name":"amount","type":"uint256"},{"internalType":"string","name":"from","type":"string"},{"internalType":"string","name":"to","type":"string"},{"internalType":"uint256","name":"timestamp","type":"uint256"},{"internalType":"uint256","name":"blockNumber","type":"uint256"}],"internalType":"struct UACPEvents.PaymentEvent","name":"","type":"tuple"}],"stateMutability":"view","type":"function"},{"inputs":[],"name":"getPaymentCount","outputs":[{"internalType":"uint256","name":"","type":"uint256"}],"stateMutability":"view","type":"function"},{"inputs":[{"internalType":"uint256","name":"_count","type":"uint256"}],"name":"getRecentMessages","outputs":[{"internalType":"string[]","name":"","type":"string[]"}],"stateMutability":"view","type":"function"},{"inputs":[{"internalType":"string","name":"_messageId","type":"string"},{"internalType":"string","name":"_sender","type":"string"},{"internalType":"string","name":"_recipient","type":"string"},{"internalType":"string","name":"_intent","type":"string"},{"internalType":"enum UACPEvents.MessageType","name":"_messageType","type":"uint8"},{"internalType":"enum UACPEvents.MessagePriority","name":"_priority","type":"uint8"},{"internalType":"bool","name":"_paymentRequired","type":"bool"}],"name":"logMessage","outputs":[],"stateMutability":"nonpayable","type":"function"},{"inputs":[{"internalType":"string","name":"_messageId","type":"string"},{"internalType":"string","name":"_correlationId","type":"string"},{"internalType":"bool","name":"_success","type":"bool"}],"name":"logMessageResponse","outputs":[],"stateMutability":"nonpayable","type":"function"},{"inputs":[{"internalType":"string","name":"_messageId","type":"string"},{"internalType":"string","name":"_transactionHash","type":"string"},{"internalType":"string","name":"_asset","type":"string"},{"internalType":"uint256","name":"_amount","type":"uint256"},{"internalType":"string","name":"_from","type":"string"},{"internalType":"string","name":"_to","type":"string"}],"name":"logPayment","outputs":[],"stateMutability":"nonpayable","type":"function"},{"inputs":[{"internalType":"string","name":"_messageId","type":"string"}],"name":"messageExists","outputs":[{"internalType":"bool","name":"","type":"bool"}],"stateMutability":"view","type":"function"},{"inputs":[{"internalType":"string","name":"_messageId","type":"string"}],"name":"paymentExists","outputs":[{"internalType":"bool","name":"","type":"bool"}],"stateMutability":"view","type":"function"}],"evm":{"bytecode":{"linkReferences":{},"object":"6080806040523461001657611272908161001c8239f35b600080fdfe608060405260048036101561001357600080fd5b6000803560e01c80630cc4e8d814610b485780630f4fccbe1461086057806317f76cac146107b95780631858e6781461072e57806318c7d16b146106f65780631e32ef3b146105dc57806331933916146105be57806340281edd146103f1578063670134011461038a578063ad2698ee146102d4578063af32a03f146102b65763c69207a3146100a257600080fd5b346102b3576020806003193601126102af5782356001600160401b0381116102ab576100d19036908501610e32565b604051926100de84610df5565b60e0606094858152858582015285604082015282868201528560808201528560a08201528260c0820152015260405190610135815192848181850195610125818389610e8d565b8101600181520301902054610f98565b156102735782906040518093819251809261014f92610e8d565b81016001815203019020906040519261016784610df5565b6101708361116d565b845261017e6001840161116d565b8483019081526101906002850161116d565b956040860196875260038501549083870191825285016101af9061116d565b60808701908152906101c36005870161116d565b9160a0880192835260068701549660c08901978852600701549460e08901958652604051998a99888b525161010080998c01526101208b0161020491610eb0565b9551601f1996878c82030160408d015261021d91610eb0565b905191868b830301908b015261023291610eb0565b915160808901525190838882030160a089015261024e91610eb0565b9051918682030160c087015261026391610eb0565b925160e085015251908301520390f35b60405162461bcd60e51b8152808601849052601160248201527014185e5b595b9d081b9bdd08199bdd5b99607a1b6044820152606490fd5b8280fd5b5080fd5b80fd5b50346102b357806003193601126102b3576020600554604051908152f35b5090346102af57602090816003193601126102ab578035906001600160401b0382116103865761030b839161031e93369101610e32565b8160405193828580945193849201610e8d565b8101600281520301902080549061033482611211565b926103426040519485610e11565b82845280840191855280852094915b83831061036a57604051806103668782610ef5565b0390f35b60018281926103788961116d565b815201960192019194610351565b8380fd5b5090346102af5760203660031901126102af5780356001600160401b0381116102ab57602080936103c46103e7946103d894369101610e32565b908260405194838680955193849201610e8d565b82019081520301902054610f98565b1515604051908152f35b5090346102af5760c03660031901126102af576001600160401b03908035828111610386576104239036908301610e32565b6024358381116105ba5761043a9036908401610e32565b916044358481116105b6576104529036908301610e32565b90606435946084358181116105b25761046e9036908401610e32565b9060a4359081116105b2576104869036908401610e32565b9161049385511515610f57565b85511561056e57926105286105479361051f61055c97947fee4c145a57458a1d698fa86077f7e3e529af1ef302ed7253461193596cd138499997610512604051602081816104e78c83815193849201610e8d565b81016001815203019020966104fc8989610fd2565b6105098b60018a01610fd2565b60028801610fd2565b8b60038701558501610fd2565b60058301610fd2565b42600682015560074391015561053f600554611128565b60055561114d565b93604051928392606084526060840190610eb0565b9060208301524260408301520390a280f35b60649060206040519162461bcd60e51b8352820152601860248201527f496e76616c6964207472616e73616374696f6e206861736800000000000000006044820152fd5b8780fd5b8580fd5b8480fd5b5090346102af57816003193601126102af5760209054604051908152f35b50346102b357602090816003193601126102b35760038054908435828111156106f0575081925b61060c84611211565b9461061a6040519687610e11565b848652601f1961062986611211565b01825b8181106106e157505050805b84811061064d57604051806103668882610ef5565b8484038481116106ce578181018091116106ce57848110156106bb579061069b6106b6928585527fc2575a0e9e593c00f959f8c92f12db2869c3395a3b0502d05e2516446f71f85b0161116d565b6106a58289611228565b526106b08188611228565b50611128565b610638565b634e487b7160e01b835260328852602483fd5b634e487b7160e01b835260118852602483fd5b6060888201840152820161062c565b92610603565b50346102b35760203660031901126102b3578135906001600160401b0382116102b35760206103e76101258261030b36878901610e32565b50346102b357806003193601126102b35760035461074b81611211565b906107596040519283610e11565b808252600383527fc2575a0e9e593c00f959f8c92f12db2869c3395a3b0502d05e2516446f71f85b9260208084015b83831061079d57604051806103668782610ef5565b60018281926107ab8961116d565b815201960192019194610788565b5090346102af5760603660031901126102af576001600160401b038135818111610386576107ea9036908401610e32565b916024359182116103865761080191369101610e32565b6044359182151580930361038657604061085061084a836108457f282182a5480181247cae9be05bcb04352cea5b5e68c5789bba5052fc51f49fa195511515610f57565b61114d565b9361114d565b938151908152426020820152a380f35b5090346102af5760e03660031901126102af576001600160401b038135818111610386576108919036908401610e32565b6024358281116105ba576108a89036908501610e32565b906044358381116105b6576108c09036908601610e32565b926064359081116105b6576108d89036908601610e32565b906084359480861015610b445760a435818110156105b25760c435801515809103610b405761090984511515610f57565b6040519784516109288a8c60209c8d91828b01956103d8818489610e8d565b610b0357906109488a60079594938d604051809481938c51928391610e8d565b8201908152030190209261095c8785610fd2565b42600185015561096f8960028601610fd2565b61097c8a60038601610fd2565b61098888878601610fd2565b61ff00600585019361099984610ed5565b60ff62ff00008654926109ab86610ed5565b60101b1694169062ffffff1916179160081b161717905543600682015501336bffffffffffffffffffffffff60a01b825416179055600354600160401b811015610af0576001810180600355811015610add57610ab6610ab6847fbbf2ae7444270c9c6f98fa35ee249c1a7bd7cb7a6202e8d914c3c6b10fc98aa49694610a5e610ad197610abc9660038f527fc2575a0e9e593c00f959f8c92f12db2869c3395a3b0502d05e2516446f71f85b01610fd2565b610a8982610a7a8d8c8160405193828580945193849201610e8d565b810160028152030190206110e1565b610aa582610a7a8d8d8160405193828580945193849201610e8d565b610aaf8154611128565b905561114d565b9561114d565b95604051928392604084526040840190610eb0565b9042908301520390a480f35b634e487b7160e01b885260328252602488fd5b634e487b7160e01b885260418252602488fd5b60405162461bcd60e51b81528086018b9052601660248201527513595cdcd859d948185b1c9958591e481b1bd9d9d95960521b6044820152606490fd5b8880fd5b8680fd5b50346102b35760203660031901126102b35781356001600160401b0381116102af57610b779036908401610e32565b9080610120604051610b8881610dc3565b6060815282602082015260606040820152606080820152606060808201528260a08201528260c08201528260e082015282610100820152015260405191610bec81519360208181850196610bdd81838a610e8d565b81018681520301902054610f98565b15610d8b5791602091610c0a93604051948593849251928391610e8d565b820190815203019020610c6160405192610c2384610dc3565b610c2c8361116d565b845260018301546020850152610c446002840161116d565b6040850152610c556003840161116d565b6060850152820161116d565b608083015260ff6005820154610c78828216610ed5565b81811660a0850152818160081c16610c8f81610ed5565b60c085015260101c16151560e08301526006810154610100830152600760018060a01b0391015416610120820152604051809160208252610d33610ce182516101406020860152610160850190610eb0565b60208301516040850152610d1e610d0a604085015192601f199384888303016060890152610eb0565b606085015183878303016080880152610eb0565b906080840151908583030160a0860152610eb0565b9060a0810151610d4281610ed5565b60c084015260c0810151610d5581610ed5565b60e084015260e0810151151561010084015261010081015161012084015261012060018060a01b03910151166101408301520390f35b60405162461bcd60e51b8152602081860152601160248201527013595cdcd859d9481b9bdd08199bdd5b99607a1b6044820152606490fd5b61014081019081106001600160401b03821117610ddf57604052565b634e487b7160e01b600052604160045260246000fd5b61010081019081106001600160401b03821117610ddf57604052565b90601f801991011681019081106001600160401b03821117610ddf57604052565b81601f82011215610e88578035906001600160401b038211610ddf5760405192610e66601f8401601f191660200185610e11565b82845260208383010111610e8857816000926020809301838601378301015290565b600080fd5b60005b838110610ea05750506000910152565b8181015183820152602001610e90565b90602091610ec981518092818552858086019101610e8d565b601f01601f1916010190565b60041115610edf57565b634e487b7160e01b600052602160045260246000fd5b602080820190808352835180925260408301928160408460051b8301019501936000915b848310610f295750505050505090565b9091929394958480610f47600193603f198682030187528a51610eb0565b9801930193019194939290610f19565b15610f5e57565b60405162461bcd60e51b8152602060048201526012602482015271125b9d985b1a59081b595cdcd859d948125160721b6044820152606490fd5b90600182811c92168015610fc8575b6020831014610fb257565b634e487b7160e01b600052602260045260246000fd5b91607f1691610fa7565b91909182516001600160401b038111610ddf57610fef8254610f98565b601f8111611099575b50602080601f831160011461103557508192939460009261102a575b50508160011b916000199060031b1c1916179055565b015190503880611014565b90601f198316958460005282600020926000905b88821061108157505083600195969710611068575b505050811b019055565b015160001960f88460031b161c1916905538808061105e565b80600185968294968601518155019501930190611049565b600083815260208120601f840160051c810192602085106110d7575b601f0160051c01915b8281106110cc575050610ff8565b8181556001016110be565b90925082906110b5565b908154600160401b811015610ddf57600181018084558110156111125761111092600052602060002001610fd2565b565b634e487b7160e01b600052603260045260246000fd5b60001981146111375760010190565b634e487b7160e01b600052601160045260246000fd5b61116590602060405192828480945193849201610e8d565b810103902090565b906040519182600082549261118184610f98565b9081845260019485811690816000146111ee57506001146111ab575b505061111092500383610e11565b9093915060005260209081600020936000915b8183106111d65750506111109350820101388061119d565b855488840185015294850194879450918301916111be565b91505061111094506020925060ff191682840152151560051b820101388061119d565b6001600160401b038111610ddf5760051b60200190565b80518210156111125760209160051b01019056fea26469706673582212209e77bc3874efb69a2b86471a6f41d7d1bf5fdc8790eb010fa836f84fb813e52464736f6c63430008140033","opcodes":"PUSH1 0x80 DUP1 PUSH1 0x40 MSTORE CALLVALUE PUSH2 0x16 JUMPI PUSH2 0x1272 SWAP1 DUP2 PUSH2 0x1C DUP3 CODECOPY RETURN JUMPDEST PUSH1 0x0 DUP1 REVERT INVALID PUSH1 0x80 PUSH1 0x40 MSTORE PUSH1 0x4 DUP1 CALLDATASIZE LT ISZERO PUSH2 0x13 JUMPI PUSH1 0x0 DUP1 REVERT JUMPDEST PUSH1 0x0 DUP1 CALLDATALOAD PUSH1 0xE0 SHR DUP1 PUSH4 0xCC4E8D8 EQ PUSH2 0xB48 JUMPI DUP1 PUSH4 0xF4FCCBE EQ PUSH2 0x860 JUMPI DUP1 PUSH4 0x17F76CAC EQ PUSH2 0x7B9 JUMPI DUP1 PUSH4 0x1858E678 EQ PUSH2 0x72E JUMPI DUP1 PUSH4 0x18C7D16B EQ PUSH2 0x6F6 JUMPI DUP1 PUSH4 0x1E32EF3B EQ PUSH2 0x5DC JUMPI DUP1 PUSH4 0x31933916 EQ PUSH2 0x5BE JUMPI DUP1 PUSH4 0x40281EDD EQ PUSH2 0x3F1 JUMPI DUP1 PUSH4 0x67013401 EQ PUSH2 0x38A JUMPI DUP1 PUSH4 0xAD2698EE EQ PUSH2 0x2D4 JUMPI DUP1 PUSH4 0xAF32A03F EQ PUSH2 0x2B6 JUMPI PUSH4 0xC69207A3 EQ PUSH2 0xA2 JUMPI PUSH1 0x0 DUP1 REVERT JUMPDEST CALLVALUE PUSH2 0x2B3 JUMPI PUSH1 0x20 DUP1 PUSH1 0x3 NOT CALLDATASIZE ADD SLT PUSH2 0x2AF JUMPI DUP3 CALLDATALOAD PUSH1 0x1 PUSH1 0x1 PUSH1 0x40 SHL SUB DUP2 GT PUSH2 0x2AB JUMPI PUSH2 0xD1 SWAP1 CALLDATASIZE SWAP1 DUP6 ADD PUSH2 0xE32 JUMP JUMPDEST PUSH1 0x40 MLOAD SWAP3 PUSH2 0xDE DUP5 PUSH2 0xDF5 JUMP JUMPDEST PUSH1 0xE0 PUSH1 0x60 SWAP5 DUP6 DUP2 MSTORE DUP6 DUP6 DUP3 ADD MSTORE DUP6 PUSH1 0x40 DUP3 ADD MSTORE DUP3 DUP7 DUP3 ADD MSTORE DUP6 PUSH1 0x80 DUP3 ADD MSTORE DUP6 PUSH1 0xA0 DUP3 ADD MSTORE DUP3 PUSH1 0xC0 DUP3 ADD MSTORE ADD MSTORE PUSH1 0x40 MLOAD SWAP1 PUSH2 0x135 DUP2 MLOAD SWAP3 DUP5 DUP2 DUP2 DUP6 ADD SWAP6 PUSH2 0x125 DUP2 DUP4 DUP10 PUSH2 0xE8D JUMP JUMPDEST DUP2 ADD PUSH1 0x1 DUP2 MSTORE SUB ADD SWAP1 KECCAK256 SLOAD PUSH2 0xF98 JUMP JUMPDEST ISZERO PUSH2 0x273 JUMPI DUP3 SWAP1 PUSH1 0x40 MLOAD DUP1 SWAP4 DUP2 SWAP3 MLOAD DUP1 SWAP3 PUSH2 0x14F SWAP3 PUSH2 0xE8D JUMP JUMPDEST DUP2 ADD PUSH1 0x1 DUP2 MSTORE SUB ADD SWAP1 KECCAK256 SWAP1 PUSH1 0x40 MLOAD SWAP3 PUSH2 0x167 DUP5 PUSH2 0xDF5 JUMP JUMPDEST PUSH2 0x170 DUP4 PUSH2 0x116D JUMP JUMPDEST DUP5 MSTORE PUSH2 0x17E PUSH1 0x1 DUP5 ADD PUSH2 0x116D JUMP JUMPDEST DUP5 DUP4 ADD SWAP1 DUP2 MSTORE PUSH2 0x190 PUSH1 0x2 DUP6 ADD PUSH2 0x116D JUMP JUMPDEST SWAP6 PUSH1 0x40 DUP7 ADD SWAP7 DUP8 MSTORE PUSH1 0x3 DUP6 ADD SLOAD SWAP1 DUP4 DUP8 ADD SWAP2 DUP3 MSTORE DUP6 ADD PUSH2 0x1AF SWAP1 PUSH2 0x116D JUMP JUMPDEST PUSH1 0x80 DUP8 ADD SWAP1 DUP2 MSTORE SWAP1 PUSH2 0x1C3 PUSH1 0x5 DUP8 ADD PUSH2 0x116D JUMP JUMPDEST SWAP2 PUSH1 0xA0 DUP9 ADD SWAP3 DUP4 MSTORE PUSH1 0x6 DUP8 ADD SLOAD SWAP7 PUSH1 0xC0 DUP10 ADD SWAP8 DUP9 MSTORE PUSH1 0x7 ADD SLOAD SWAP5 PUSH1 0xE0 DUP10 ADD SWAP6 DUP7 MSTORE PUSH1 0x40 MLOAD SWAP10 DUP11 SWAP10 DUP9 DUP12 MSTORE MLOAD PUSH2 0x100 DUP1 SWAP10 DUP13 ADD MSTORE PUSH2 0x120 DUP12 ADD PUSH2 0x204 SWAP2 PUSH2 0xEB0 JUMP JUMPDEST SWAP6 MLOAD PUSH1 0x1F NOT SWAP7 DUP8 DUP13 DUP3 SUB ADD PUSH1 0x40 DUP14 ADD MSTORE PUSH2 0x21D SWAP2 PUSH2 0xEB0 JUMP JUMPDEST SWAP1 MLOAD SWAP2 DUP7 DUP12 DUP4 SUB ADD SWAP1 DUP12 ADD MSTORE PUSH2 0x232 SWAP2 PUSH2 0xEB0 JUMP JUMPDEST SWAP2 MLOAD PUSH1 0x80 DUP10 ADD MSTORE MLOAD SWAP1 DUP4 DUP9 DUP3 SUB ADD PUSH1 0xA0 DUP10 ADD MSTORE PUSH2 0x24E SWAP2 PUSH2 0xEB0 JUMP JUMPDEST SWAP1 MLOAD SWAP2 DUP7 DUP3 SUB ADD PUSH1 0xC0 DUP8 ADD MSTORE PUSH2 0x263 SWAP2 PUSH2 0xEB0 JUMP JUMPDEST SWAP3 MLOAD PUSH1 0xE0 DUP6 ADD MSTORE MLOAD SWAP1 DUP4 ADD MSTORE SUB SWAP1 RETURN JUMPDEST PUSH1 0x40 MLOAD PUSH3 0x461BCD PUSH1 0xE5 SHL DUP2 MSTORE DUP1 DUP7 ADD DUP5 SWAP1 MSTORE PUSH1 0x11 PUSH1 0x24 DUP3 ADD MSTORE PUSH17 0x14185E5B595B9D081B9BDD08199BDD5B99 PUSH1 0x7A SHL PUSH1 0x44 DUP3 ADD MSTORE PUSH1 0x64 SWAP1 REVERT JUMPDEST DUP3 DUP1 REVERT JUMPDEST POP DUP1 REVERT JUMPDEST DUP1 REVERT JUMPDEST POP CALLVALUE PUSH2 0x2B3 JUMPI DUP1 PUSH1 0x3 NOT CALLDATASIZE ADD SLT PUSH2 0x2B3 JUMPI PUSH1 0x20 PUSH1 0x5 SLOAD PUSH1 0x40 MLOAD SWAP1 DUP2 MSTORE RETURN JUMPDEST POP SWAP1 CALLVALUE PUSH2 0x2AF JUMPI PUSH1 0x20 SWAP1 DUP2 PUSH1 0x3 NOT CALLDATASIZE ADD SLT PUSH2 0x2AB JUMPI DUP1 CALLDATALOAD SWAP1 PUSH1 0x1 PUSH1 0x1 PUSH1 0x40 SHL SUB DUP3 GT PUSH2 0x386 JUMPI PUSH2 0x30B DUP4 SWAP2 PUSH2 0x31E SWAP4 CALLDATASIZE SWAP2 ADD PUSH2 0xE32 JUMP JUMPDEST DUP2 PUSH1 0x40 MLOAD SWAP4 DUP3 DUP6 DUP1 SWAP5 MLOAD SWAP4 DUP5 SWAP3 ADD PUSH2 0xE8D JUMP JUMPDEST DUP2 ADD PUSH1 0x2 DUP2 MSTORE SUB ADD SWAP1 KECCAK256 DUP1 SLOAD SWAP1 PUSH2 0x334 DUP3 PUSH2 0x1211 JUMP JUMPDEST SWAP3 PUSH2 0x342 PUSH1 0x40 MLOAD SWAP5 DUP6 PUSH2 0xE11 JUMP JUMPDEST DUP3 DUP5 MSTORE DUP1 DUP5 ADD SWAP2 DUP6 MSTORE DUP1 DUP6 KECCAK256 SWAP5 SWAP2 JUMPDEST DUP4 DUP4 LT PUSH2 0x36A JUMPI PUSH1 0x40 MLOAD DUP1 PUSH2 0x366 DUP8 DUP3 PUSH2 0xEF5 JUMP JUMPDEST SUB SWAP1 RETURN JUMPDEST PUSH1 0x1 DUP3 DUP2 SWAP3 PUSH2 0x378 DUP10 PUSH2 0x116D JUMP JUMPDEST DUP2 MSTORE ADD SWAP7 ADD SWAP3 ADD SWAP2 SWAP5 PUSH2 0x351 JUMP JUMPDEST DUP4 DUP1 REVERT JUMPDEST POP SWAP1 CALLVALUE PUSH2 0x2AF JUMPI PUSH1 0x20 CALLDATASIZE PUSH1 0x3 NOT ADD SLT PUSH2 0x2AF JUMPI DUP1 CALLDATALOAD PUSH1 0x1 PUSH1 0x1 PUSH1 0x40 SHL SUB DUP2 GT PUSH2 0x2AB JUMPI PUSH1 0x20 DUP1 SWAP4 PUSH2 0x3C4 PUSH2 0x3E7 SWAP5 PUSH2 0x3D8 SWAP5 CALLDATASIZE SWAP2 ADD PUSH2 0xE32 JUMP JUMPDEST SWAP1 DUP3 PUSH1 0x40 MLOAD SWAP5 DUP4 DUP7 DUP1 SWAP6 MLOAD SWAP4 DUP5 SWAP3 ADD PUSH2 0xE8D JUMP JUMPDEST DUP3 ADD SWAP1 DUP2 MSTORE SUB ADD SWAP1 KECCAK256 SLOAD PUSH2 0xF98 JUMP JUMPDEST ISZERO ISZERO PUSH1 0x40 MLOAD SWAP1 DUP2 MSTORE RETURN JUMPDEST POP SWAP1 CALLVALUE PUSH2 0x2AF JUMPI PUSH1 0xC0 CALLDATASIZE PUSH1 0x3 NOT ADD SLT PUSH2 0x2AF JUMPI PUSH1 0x1 PUSH1 0x1 PUSH1 0x40 SHL SUB SWAP1 DUP1 CALLDATALOAD DUP3 DUP2 GT PUSH2 0x386 JUMPI PUSH2 0x423 SWAP1 CALLDATASIZE SWAP1 DUP4 ADD PUSH2 0xE32 JUMP JUMPDEST PUSH1 0x24 CALLDATALOAD DUP4 DUP2 GT PUSH2 0x5BA JUMPI PUSH2 0x43A SWAP1 CALLDATASIZE SWAP1 DUP5 ADD PUSH2 0xE32 JUMP JUMPDEST SWAP2 PUSH1 0x44 CALLDATALOAD DUP5 DUP2 GT PUSH2 0x5B6 JUMPI PUSH2 0x452 SWAP1 CALLDATASIZE SWAP1 DUP4 ADD PUSH2 0xE32 JUMP JUMPDEST SWAP1 PUSH1 0x64 CALLDATALOAD SWAP5 PUSH1 0x84 CALLDATALOAD DUP2 DUP2 GT PUSH2 0x5B2 JUMPI PUSH2 0x46E SWAP1 CALLDATASIZE SWAP1 DUP5 ADD PUSH2 0xE32 JUMP JUMPDEST SWAP1 PUSH1 0xA4 CALLDATALOAD SWAP1 DUP2 GT PUSH2 0x5B2 JUMPI PUSH2 0x486 SWAP1 CALLDATASIZE SWAP1 DUP5 ADD PUSH2 0xE32 JUMP JUMPDEST SWAP2 PUSH2 0x493 DUP6 MLOAD ISZERO ISZERO PUSH2 0xF57 JUMP JUMPDEST DUP6 MLOAD ISZERO PUSH2 0x56E JUMPI SWAP3 PUSH2 0x528 PUSH2 0x547 SWAP4 PUSH2 0x51F PUSH2 0x55C SWAP8 SWAP5 PUSH32 0xEE4C145A57458A1D698FA86077F7E3E529AF1EF302ED7253461193596CD13849 SWAP10 SWAP8 PUSH2 0x512 PUSH1 0x40 MLOAD PUSH1 0x20 DUP2 DUP2 PUSH2 0x4E7 DUP13 DUP4 DUP2 MLOAD SWAP4 DUP5 SWAP3 ADD PUSH2 0xE8D JUMP JUMPDEST DUP2 ADD PUSH1 0x1 DUP2 MSTORE SUB ADD SWAP1 KECCAK256 SWAP7 PUSH2 0x4FC DUP10 DUP10 PUSH2 0xFD2 JUMP JUMPDEST PUSH2 0x509 DUP12 PUSH1 0x1 DUP11 ADD PUSH2 0xFD2 JUMP JUMPDEST PUSH1 0x2 DUP9 ADD PUSH2 0xFD2 JUMP JUMPDEST DUP12 PUSH1 0x3 DUP8 ADD SSTORE DUP6 ADD PUSH2 0xFD2 JUMP JUMPDEST PUSH1 0x5 DUP4 ADD PUSH2 0xFD2 JUMP JUMPDEST TIMESTAMP PUSH1 0x6 DUP3 ADD SSTORE PUSH1 0x7 NUMBER SWAP2 ADD SSTORE PUSH2 0x53F PUSH1 0x5 SLOAD PUSH2 0x1128 JUMP JUMPDEST PUSH1 0x5 SSTORE PUSH2 0x114D JUMP JUMPDEST SWAP4 PUSH1 0x40 MLOAD SWAP3 DUP4 SWAP3 PUSH1 0x60 DUP5 MSTORE PUSH1 0x60 DUP5 ADD SWAP1 PUSH2 0xEB0 JUMP JUMPDEST SWAP1 PUSH1 0x20 DUP4 ADD MSTORE TIMESTAMP PUSH1 0x40 DUP4 ADD MSTORE SUB SWAP1 LOG2 DUP1 RETURN JUMPDEST PUSH1 0x64 SWAP1 PUSH1 0x20 PUSH1 0x40 MLOAD SWAP2 PUSH3 0x461BCD PUSH1 0xE5 SHL DUP4 MSTORE DUP3 ADD MSTORE PUSH1 0x18 PUSH1 0x24 DUP3 ADD MSTORE PUSH32 0x496E76616C6964207472616E73616374696F6E20686173680000000000000000 PUSH1 0x44 DUP3 ADD MSTORE REVERT JUMPDEST DUP8 DUP1 REVERT JUMPDEST DUP6 DUP1 REVERT JUMPDEST DUP5 DUP1 REVERT JUMPDEST POP SWAP1 CALLVALUE PUSH2 0x2AF JUMPI DUP2 PUSH1 0x3 NOT CALLDATASIZE ADD SLT PUSH2 0x2AF JUMPI PUSH1 0x20 SWAP1 SLOAD PUSH1 0x40 MLOAD SWAP1 DUP2 MSTORE RETURN JUMPDEST POP CALLVALUE PUSH2 0x2B3 JUMPI PUSH1 0x20 SWAP1 DUP2 PUSH1 0x3 NOT CALLDATASIZE ADD SLT PUSH2 0x2B3 JUMPI PUSH1 0x3 DUP1 SLOAD SWAP1 DUP5 CALLDATALOAD DUP3 DUP2 GT ISZERO PUSH2 0x6F0 JUMPI POP DUP2 SWAP3 JUMPDEST PUSH2 0x60C DUP5 PUSH2 0x1211 JUMP JUMPDEST SWAP5 PUSH2 0x61A PUSH1 0x40 MLOAD SWAP7 DUP8 PUSH2 0xE11 JUMP JUMPDEST DUP5 DUP7 MSTORE PUSH1 0x1F NOT PUSH2 0x629 DUP7 PUSH2 0x1211 JUMP JUMPDEST ADD DUP3 JUMPDEST DUP2 DUP2 LT PUSH2 0x6E1 JUMPI POP POP POP DUP1 JUMPDEST DUP5 DUP2 LT PUSH2 0x64D JUMPI PUSH1 0x40 MLOAD DUP1 PUSH2 0x366 DUP9 DUP3 PUSH2 0xEF5 JUMP JUMPDEST DUP5 DUP5 SUB DUP5 DUP2 GT PUSH2 0x6CE JUMPI DUP2 DUP2 ADD DUP1 SWAP2 GT PUSH2 0x6CE JUMPI DUP5 DUP2 LT ISZERO PUSH2 0x6BB JUMPI SWAP1 PUSH2 0x69B PUSH2 0x6B6 SWAP3 DUP6 DUP6 MSTORE PUSH32 0xC2575A0E9E593C00F959F8C92F12DB2869C3395A3B0502D05E2516446F71F85B ADD PUSH2 0x116D JUMP JUMPDEST PUSH2 0x6A5 DUP3 DUP10 PUSH2 0x1228 JUMP JUMPDEST MSTORE PUSH2 0x6B0 DUP2 DUP9 PUSH2 0x1228 JUMP JUMPDEST POP PUSH2 0x1128 JUMP JUMPDEST PUSH2 0x638 JUMP JUMPDEST PUSH4 0x4E487B71 PUSH1 0xE0 SHL DUP4 MSTORE PUSH1 0x32 DUP9 MSTORE PUSH1 0x24 DUP4 REVERT JUMPDEST PUSH4 0x4E487B71 PUSH1 0xE0 SHL DUP4 MSTORE PUSH1 0x11 DUP9 MSTORE PUSH1 0x24 DUP4 REVERT JUMPDEST PUSH1 0x60 DUP9 DUP3 ADD DUP5 ADD MSTORE DUP3 ADD PUSH2 0x62C JUMP JUMPDEST SWAP3 PUSH2 0x603 JUMP JUMPDEST POP CALLVALUE PUSH2 0x2B3 JUMPI PUSH1 0x20 CALLDATASIZE PUSH1 0x3 NOT ADD SLT PUSH2 0x2B3 JUMPI DUP2 CALLDATALOAD SWAP1 PUSH1 0x1 PUSH1 0x1 PUSH1 0x40 SHL SUB DUP3 GT PUSH2 0x2B3 JUMPI PUSH1 0x20 PUSH2 0x3E7 PUSH2 0x125 DUP3 PUSH2 0x30B CALLDATASIZE DUP8 DUP10 ADD PUSH2 0xE32 JUMP JUMPDEST POP CALLVALUE PUSH2 0x2B3 JUMPI DUP1 PUSH1 0x3 NOT CALLDATASIZE ADD SLT PUSH2 0x2B3 JUMPI PUSH1 0x3 SLOAD PUSH2 0x74B DUP2 PUSH2 0x1211 JUMP JUMPDEST SWAP1 PUSH2 0x759 PUSH1 0x40 MLOAD SWAP3 DUP4 PUSH2 0xE11 JUMP JUMPDEST DUP1 DUP3 MSTORE PUSH1 0x3 DUP4 MSTORE PUSH32 0xC2575A0E9E593C00F959F8C92F12DB2869C3395A3B0502D05E2516446F71F85B SWAP3 PUSH1 0x20 DUP1 DUP5 ADD JUMPDEST DUP4 DUP4 LT PUSH2 0x79D JUMPI PUSH1 0x40 MLOAD DUP1 PUSH2 0x366 DUP8 DUP3 PUSH2 0xEF5 JUMP JUMPDEST PUSH1 0x1 DUP3 DUP2 SWAP3 PUSH2 0x7AB DUP10 PUSH2 0x116D JUMP JUMPDEST DUP2 MSTORE ADD SWAP7 ADD SWAP3 ADD SWAP2 SWAP5 PUSH2 0x788 JUMP JUMPDEST POP SWAP1 CALLVALUE PUSH2 0x2AF JUMPI PUSH1 0x60 CALLDATASIZE PUSH1 0x3 NOT ADD SLT PUSH2 0x2AF JUMPI PUSH1 0x1 PUSH1 0x1 PUSH1 0x40 SHL SUB DUP2 CALLDATALOAD DUP2 DUP2 GT PUSH2 0x386 JUMPI PUSH2 0x7EA SWAP1 CALLDATASIZE SWAP1 DUP5 ADD PUSH2 0xE32 JUMP JUMPDEST SWAP2 PUSH1 0x24 CALLDATALOAD SWAP2 DUP3 GT PUSH2 0x386 JUMPI PUSH2 0x801 SWAP2 CALLDATASIZE SWAP2 ADD PUSH2 0xE32 JUMP JUMPDEST PUSH1 0x44 CALLDATALOAD SWAP2 DUP3 ISZERO ISZERO DUP1 SWAP4 SUB PUSH2 0x386 JUMPI PUSH1 0x40 PUSH2 0x850 PUSH2 0x84A DUP4 PUSH2 0x845 PUSH32 0x282182A5480181247CAE9BE05BCB04352CEA5B5E68C5789BBA5052FC51F49FA1 SWAP6 MLOAD ISZERO ISZERO PUSH2 0xF57 JUMP JUMPDEST PUSH2 0x114D JUMP JUMPDEST SWAP4 PUSH2 0x114D JUMP JUMPDEST SWAP4 DUP2 MLOAD SWAP1 DUP2 MSTORE TIMESTAMP PUSH1 0x20 DUP3 ADD MSTORE LOG3 DUP1 RETURN JUMPDEST POP SWAP1 CALLVALUE PUSH2 0x2AF JUMPI PUSH1 0xE0 CALLDATASIZE PUSH1 0x3 NOT ADD SLT PUSH2 0x2AF JUMPI PUSH1 0x1 PUSH1 0x1 PUSH1 0x40 SHL SUB DUP2 CALLDATALOAD DUP2 DUP2 GT PUSH2 0x386 JUMPI PUSH2 0x891 SWAP1 CALLDATASIZE SWAP1 DUP5 ADD PUSH2 0xE32 JUMP JUMPDEST PUSH1 0x24 CALLDATALOAD DUP3 DUP2 GT PUSH2 0x5BA JUMPI PUSH2 0x8A8 SWAP1 CALLDATASIZE SWAP1 DUP6 ADD PUSH2 0xE32 JUMP JUMPDEST SWAP1 PUSH1 0x44 CALLDATALOAD DUP4 DUP2 GT PUSH2 0x5B6 JUMPI PUSH2 0x8C0 SWAP1 CALLDATASIZE SWAP1 DUP7 ADD PUSH2 0xE32 JUMP JUMPDEST SWAP3 PUSH1 0x64 CALLDATALOAD SWAP1 DUP2 GT PUSH2 0x5B6 JUMPI PUSH2 0x8D8 SWAP1 CALLDATASIZE SWAP1 DUP7 ADD PUSH2 0xE32 JUMP JUMPDEST SWAP1 PUSH1 0x84 CALLDATALOAD SWAP5 DUP1 DUP7 LT ISZERO PUSH2 0xB44 JUMPI PUSH1 0xA4 CALLDATALOAD DUP2 DUP2 LT ISZERO PUSH2 0x5B2 JUMPI PUSH1 0xC4 CALLDATALOAD DUP1 ISZERO ISZERO DUP1 SWAP2 SUB PUSH2 0xB40 JUMPI PUSH2 0x909 DUP5 MLOAD ISZERO ISZERO PUSH2 0xF57 JUMP JUMPDEST PUSH1 0x40 MLOAD SWAP8 DUP5 MLOAD PUSH2 0x928 DUP11 DUP13 PUSH1 0x20 SWAP13 DUP14 SWAP2 DUP3 DUP12 ADD SWAP6 PUSH2 0x3D8 DUP2 DUP5 DUP10 PUSH2 0xE8D JUMP JUMPDEST PUSH2 0xB03 JUMPI SWAP1 PUSH2 0x948 DUP11 PUSH1 0x7 SWAP6 SWAP5 SWAP4 DUP14 PUSH1 0x40 MLOAD DUP1 SWAP5 DUP2 SWAP4 DUP13 MLOAD SWAP3 DUP4 SWAP2 PUSH2 0xE8D JUMP JUMPDEST DUP3 ADD SWAP1 DUP2 MSTORE SUB ADD SWAP1 KECCAK256 SWAP3 PUSH2 0x95C DUP8 DUP6 PUSH2 0xFD2 JUMP JUMPDEST TIMESTAMP PUSH1 0x1 DUP6 ADD SSTORE PUSH2 0x96F DUP10 PUSH1 0x2 DUP7 ADD PUSH2 0xFD2 JUMP JUMPDEST PUSH2 0x97C DUP11 PUSH1 0x3 DUP7 ADD PUSH2 0xFD2 JUMP JUMPDEST PUSH2 0x988 DUP9 DUP8 DUP7 ADD PUSH2 0xFD2 JUMP JUMPDEST PUSH2 0xFF00 PUSH1 0x5 DUP6 ADD SWAP4 PUSH2 0x999 DUP5 PUSH2 0xED5 JUMP JUMPDEST PUSH1 0xFF PUSH3 0xFF0000 DUP7 SLOAD SWAP3 PUSH2 0x9AB DUP7 PUSH2 0xED5 JUMP JUMPDEST PUSH1 0x10 SHL AND SWAP5 AND SWAP1 PUSH3 0xFFFFFF NOT AND OR SWAP2 PUSH1 0x8 SHL AND OR OR SWAP1 SSTORE NUMBER PUSH1 0x6 DUP3 ADD SSTORE ADD CALLER PUSH12 0xFFFFFFFFFFFFFFFFFFFFFFFF PUSH1 0xA0 SHL DUP3 SLOAD AND OR SWAP1 SSTORE PUSH1 0x3 SLOAD PUSH1 0x1 PUSH1 0x40 SHL DUP2 LT ISZERO PUSH2 0xAF0 JUMPI PUSH1 0x1 DUP2 ADD DUP1 PUSH1 0x3 SSTORE DUP2 LT ISZERO PUSH2 0xADD JUMPI PUSH2 0xAB6 PUSH2 0xAB6 DUP5 PUSH32 0xBBF2AE7444270C9C6F98FA35EE249C1A7BD7CB7A6202E8D914C3C6B10FC98AA4 SWAP7 SWAP5 PUSH2 0xA5E PUSH2 0xAD1 SWAP8 PUSH2 0xABC SWAP7 PUSH1 0x3 DUP16 MSTORE PUSH32 0xC2575A0E9E593C00F959F8C92F12DB2869C3395A3B0502D05E2516446F71F85B ADD PUSH2 0xFD2 JUMP JUMPDEST PUSH2 0xA89 DUP3 PUSH2 0xA7A DUP14 DUP13 DUP2 PUSH1 0x40 MLOAD SWAP4 DUP3 DUP6 DUP1 SWAP5 MLOAD SWAP4 DUP5 SWAP3 ADD PUSH2 0xE8D JUMP JUMPDEST DUP2 ADD PUSH1 0x2 DUP2 MSTORE SUB ADD SWAP1 KECCAK256 PUSH2 0x10E1 JUMP JUMPDEST PUSH2 0xAA5 DUP3 PUSH2 0xA7A DUP14 DUP14 DUP2 PUSH1 0x40 MLOAD SWAP4 DUP3 DUP6 DUP1 SWAP5 MLOAD SWAP4 DUP5 SWAP3 ADD PUSH2 0xE8D JUMP JUMPDEST PUSH2 0xAAF DUP2 SLOAD PUSH2 0x1128 JUMP JUMPDEST SWAP1 SSTORE PUSH2 0x114D JUMP JUMPDEST SWAP6 PUSH2 0x114D JUMP JUMPDEST SWAP6 PUSH1 0x40 MLOAD SWAP3 DUP4 SWAP3 PUSH1 0x40 DUP5 MSTORE PUSH1 0x40 DUP5 ADD SWAP1 PUSH2 0xEB0 JUMP JUMPDEST SWAP1 TIMESTAMP SWAP1 DUP4 ADD MSTORE SUB SWAP1 LOG4 DUP1 RETURN JUMPDEST PUSH4 0x4E487B71 PUSH1 0xE0 SHL DUP9 MSTORE PUSH1 0x32 DUP3 MSTORE PUSH1 0x24 DUP9 REVERT JUMPDEST PUSH4 0x4E487B71 PUSH1 0xE0 SHL DUP9 MSTORE PUSH1 0x41 DUP3 MSTORE PUSH1 0x24 DUP9 REVERT JUMPDEST PUSH1 0x40 MLOAD PUSH3 0x461BCD PUSH1 0xE5 SHL DUP2 MSTORE DUP1 DUP7 ADD DUP12 SWAP1 MSTORE PUSH1 0x16 PUSH1 0x24 DUP3 ADD MSTORE PUSH22 0x13595CDCD859D948185B1C9958591E481B1BD9D9D959 PUSH1 0x52 SHL PUSH1 0x44 DUP3 ADD MSTORE PUSH1 0x64 SWAP1 REVERT JUMPDEST DUP9 DUP1 REVERT JUMPDEST DUP7 DUP1 REVERT JUMPDEST POP CALLVALUE PUSH2 0x2B3 JUMPI PUSH1 0x20 CALLDATASIZE PUSH1 0x3 NOT ADD SLT PUSH2 0x2B3 JUMPI DUP2 CALLDATALOAD PUSH1 0x1 PUSH1 0x1 PUSH1 0x40 SHL SUB DUP2 GT PUSH2 0x2AF JUMPI PUSH2 0xB77 SWAP1 CALLDATASIZE SWAP1 DUP5 ADD PUSH2 0xE32 JUMP JUMPDEST SWAP1 DUP1 PUSH2 0x120 PUSH1 0x40 MLOAD PUSH2 0xB88 DUP2 PUSH2 0xDC3 JUMP JUMPDEST PUSH1 0x60 DUP2 MSTORE DUP3 PUSH1 0x20 DUP3 ADD MSTORE PUSH1 0x60 PUSH1 0x40 DUP3 ADD MSTORE PUSH1 0x60 DUP1 DUP3 ADD MSTORE PUSH1 0x60 PUSH1 0x80 DUP3 ADD MSTORE DUP3 PUSH1 0xA0 DUP3 ADD MSTORE DUP3 PUSH1 0xC0 DUP3 ADD MSTORE DUP3 PUSH1 0xE0 DUP3 ADD MSTORE DUP3 PUSH2 0x100 DUP3 ADD MSTORE ADD MSTORE PUSH1 0x40 MLOAD SWAP2 PUSH2 0xBEC DUP2 MLOAD SWAP4 PUSH1 0x20 DUP2 DUP2 DUP6 ADD SWAP7 PUSH2 0xBDD DUP2 DUP4 DUP11 PUSH2 0xE8D JUMP JUMPDEST DUP2 ADD DUP7 DUP2 MSTORE SUB ADD SWAP1 KECCAK256 SLOAD PUSH2 0xF98 JUMP JUMPDEST ISZERO PUSH2 0xD8B JUMPI SWAP2 PUSH1 0x20 SWAP2 PUSH2 0xC0A SWAP4 PUSH1 0x40 MLOAD SWAP5 DUP6 SWAP4 DUP5 SWAP3 MLOAD SWAP3 DUP4 SWAP2 PUSH2 0xE8D JUMP JUMPDEST DUP3 ADD SWAP1 DUP2 MSTORE SUB ADD SWAP1 KECCAK256 PUSH2 0xC61 PUSH1 0x40 MLOAD SWAP3 PUSH2 0xC23 DUP5 PUSH2 0xDC3 JUMP JUMPDEST PUSH2 0xC2C DUP4 PUSH2 0x116D JUMP JUMPDEST DUP5 MSTORE PUSH1 0x1 DUP4 ADD SLOAD PUSH1 0x20 DUP6 ADD MSTORE PUSH2 0xC44 PUSH1 0x2 DUP5 ADD PUSH2 0x116D JUMP JUMPDEST PUSH1 0x40 DUP6 ADD MSTORE PUSH2 0xC55 PUSH1 0x3 DUP5 ADD PUSH2 0x116D JUMP JUMPDEST PUSH1 0x60 DUP6 ADD MSTORE DUP3 ADD PUSH2 0x116D JUMP JUMPDEST PUSH1 0x80 DUP4 ADD MSTORE PUSH1 0xFF PUSH1 0x5 DUP3 ADD SLOAD PUSH2 0xC78 DUP3 DUP3 AND PUSH2 0xED5 JUMP JUMPDEST DUP2 DUP2 AND PUSH1 0xA0 DUP6 ADD MSTORE DUP2 DUP2 PUSH1 0x8 SHR AND PUSH2 0xC8F DUP2 PUSH2 0xED5 JUMP JUMPDEST PUSH1 0xC0 DUP6 ADD MSTORE PUSH1 0x10 SHR AND ISZERO ISZERO PUSH1 0xE0 DUP4 ADD MSTORE PUSH1 0x6 DUP2 ADD SLOAD PUSH2 0x100 DUP4 ADD MSTORE PUSH1 0x7 PUSH1 0x1 DUP1 PUSH1 0xA0 SHL SUB SWAP2 ADD SLOAD AND PUSH2 0x120 DUP3 ADD MSTORE PUSH1 0x40 MLOAD DUP1 SWAP2 PUSH1 0x20 DUP3 MSTORE PUSH2 0xD33 PUSH2 0xCE1 DUP3 MLOAD PUSH2 0x140 PUSH1 0x20 DUP7 ADD MSTORE PUSH2 0x160 DUP6 ADD SWAP1 PUSH2 0xEB0 JUMP JUMPDEST PUSH1 0x20 DUP4 ADD MLOAD PUSH1 0x40 DUP6 ADD MSTORE PUSH2 0xD1E PUSH2 0xD0A PUSH1 0x40 DUP6 ADD MLOAD SWAP3 PUSH1 0x1F NOT SWAP4 DUP5 DUP9 DUP4 SUB ADD PUSH1 0x60 DUP10 ADD MSTORE PUSH2 0xEB0 JUMP JUMPDEST PUSH1 0x60 DUP6 ADD MLOAD DUP4 DUP8 DUP4 SUB ADD PUSH1 0x80 DUP9 ADD MSTORE PUSH2 0xEB0 JUMP JUMPDEST SWAP1 PUSH1 0x80 DUP5 ADD MLOAD SWAP1 DUP6 DUP4 SUB ADD PUSH1 0xA0 DUP7 ADD MSTORE PUSH2 0xEB0 JUMP JUMPDEST SWAP1 PUSH1 0xA0 DUP2 ADD MLOAD PUSH2 0xD42 DUP2 PUSH2 0xED5 JUMP JUMPDEST PUSH1 0xC0 DUP5 ADD MSTORE PUSH1 0xC0 DUP2 ADD MLOAD PUSH2 0xD55 DUP2 PUSH2 0xED5 JUMP JUMPDEST PUSH1 0xE0 DUP5 ADD MSTORE PUSH1 0xE0 DUP2 ADD MLOAD ISZERO ISZERO PUSH2 0x100 DUP5 ADD MSTORE PUSH2 0x100 DUP2 ADD MLOAD PUSH2 0x120 DUP5 ADD MSTORE PUSH2 0x120 PUSH1 0x1 DUP1 PUSH1 0xA0 SHL SUB SWAP2 ADD MLOAD AND PUSH2 0x140 DUP4 ADD MSTORE SUB SWAP1 RETURN JUMPDEST PUSH1 0x40 MLOAD PUSH3 0x461BCD PUSH1 0xE5 SHL DUP2 MSTORE PUSH1 0x20 DUP2 DUP7 ADD MSTORE PUSH1 0x11 PUSH1 0x24 DUP3 ADD MSTORE PUSH17 0x13595CDCD859D9481B9BDD08199BDD5B99 PUSH1 0x7A SHL PUSH1 0x44 DUP3 ADD MSTORE PUSH1 0x64 SWAP1 REVERT JUMPDEST PUSH2 0x140 DUP2 ADD SWAP1 DUP2 LT PUSH1 0x1 PUSH1 0x1 PUSH1 0x40 SHL SUB DUP3 GT OR PUSH2 0xDDF JUMPI PUSH1 0x40 MSTORE JUMP JUMPDEST PUSH4 0x4E487B71 PUSH1 0xE0 SHL PUSH1 0x0 MSTORE PUSH1 0x41 PUSH1 0x4 MSTORE PUSH1 0x24 PUSH1 0x0 REVERT JUMPDEST PUSH2 0x100 DUP2 ADD SWAP1 DUP2 LT PUSH1 0x1 PUSH1 0x1 PUSH1 0x40 SHL SUB DUP3 GT OR PUSH2 0xDDF JUMPI PUSH1 0x40 MSTORE JUMP JUMPDEST SWAP1 PUSH1 0x1F DUP1 NOT SWAP2 ADD AND DUP2 ADD SWAP1 DUP2 LT PUSH1 0x1 PUSH1 0x1 PUSH1 0x40 SHL SUB DUP3 GT OR PUSH2 0xDDF JUMPI PUSH1 0x40 MSTORE JUMP JUMPDEST DUP2 PUSH1 0x1F DUP3 ADD SLT ISZERO PUSH2 0xE88 JUMPI DUP1 CALLDATALOAD SWAP1 PUSH1 0x1 PUSH1 0x1 PUSH1 0x40 SHL SUB DUP3 GT PUSH2 0xDDF JUMPI PUSH1 0x40 MLOAD SWAP3 PUSH2 0xE66 PUSH1 0x1F DUP5 ADD PUSH1 0x1F NOT AND PUSH1 0x20 ADD DUP6 PUSH2 0xE11 JUMP JUMPDEST DUP3 DUP5 MSTORE PUSH1 0x20 DUP4 DUP4 ADD ADD GT PUSH2 0xE88 JUMPI DUP2 PUSH1 0x0 SWAP3 PUSH1 0x20 DUP1 SWAP4 ADD DUP4 DUP7 ADD CALLDATACOPY DUP4 ADD ADD MSTORE SWAP1 JUMP JUMPDEST PUSH1 0x0 DUP1 REVERT JUMPDEST PUSH1 0x0 JUMPDEST DUP4 DUP2 LT PUSH2 0xEA0 JUMPI POP POP PUSH1 0x0 SWAP2 ADD MSTORE JUMP JUMPDEST DUP2 DUP2 ADD MLOAD DUP4 DUP3 ADD MSTORE PUSH1 0x20 ADD PUSH2 0xE90 JUMP JUMPDEST SWAP1 PUSH1 0x20 SWAP2 PUSH2 0xEC9 DUP2 MLOAD DUP1 SWAP3 DUP2 DUP6 MSTORE DUP6 DUP1 DUP7 ADD SWAP2 ADD PUSH2 0xE8D JUMP JUMPDEST PUSH1 0x1F ADD PUSH1 0x1F NOT AND ADD ADD SWAP1 JUMP JUMPDEST PUSH1 0x4 GT ISZERO PUSH2 0xEDF JUMPI JUMP JUMPDEST PUSH4 0x4E487B71 PUSH1 0xE0 SHL PUSH1 0x0 MSTORE PUSH1 0x21 PUSH1 0x4 MSTORE PUSH1 0x24 PUSH1 0x0 REVERT JUMPDEST PUSH1 0x20 DUP1 DUP3 ADD SWAP1 DUP1 DUP4 MSTORE DUP4 MLOAD DUP1 SWAP3 MSTORE PUSH1 0x40 DUP4 ADD SWAP3 DUP2 PUSH1 0x40 DUP5 PUSH1 0x5 SHL DUP4 ADD ADD SWAP6 ADD SWAP4 PUSH1 0x0 SWAP2 JUMPDEST DUP5 DUP4 LT PUSH2 0xF29 JUMPI POP POP POP POP POP POP SWAP1 JUMP JUMPDEST SWAP1 SWAP2 SWAP3 SWAP4 SWAP5 SWAP6 DUP5 DUP1 PUSH2 0xF47 PUSH1 0x1 SWAP4 PUSH1 0x3F NOT DUP7 DUP3 SUB ADD DUP8 MSTORE DUP11 MLOAD PUSH2 0xEB0 JUMP JUMPDEST SWAP9 ADD SWAP4 ADD SWAP4 ADD SWAP2 SWAP5 SWAP4 SWAP3 SWAP1 PUSH2 0xF19 JUMP JUMPDEST ISZERO PUSH2 0xF5E JUMPI JUMP JUMPDEST PUSH1 0x40 MLOAD PUSH3 0x461BCD PUSH1 0xE5 SHL DUP2 MSTORE PUSH1 0x20 PUSH1 0x4 DUP3 ADD MSTORE PUSH1 0x12 PUSH1 0x24 DUP3 ADD MSTORE PUSH18 0x125B9D985B1A59081B595CDCD859D9481251 PUSH1 0x72 SHL PUSH1 0x44 DUP3 ADD MSTORE PUSH1 0x64 SWAP1 REVERT JUMPDEST SWAP1 PUSH1 0x1 DUP3 DUP2 SHR SWAP3 AND DUP1 ISZERO PUSH2 0xFC8 JUMPI JUMPDEST PUSH1 0x20 DUP4 LT EQ PUSH2 0xFB2 JUMPI JUMP JUMPDEST PUSH4 0x4E487B71 PUSH1 0xE0 SHL PUSH1 0x0 MSTORE PUSH1 0x22 PUSH1 0x4 MSTORE PUSH1 0x24 PUSH1 0x0 REVERT JUMPDEST SWAP2 PUSH1 0x7F AND SWAP2 PUSH2 0xFA7 JUMP JUMPDEST SWAP2 SWAP1 SWAP2 DUP3 MLOAD PUSH1 0x1 PUSH1 0x1 PUSH1 0x40 SHL SUB DUP2 GT PUSH2 0xDDF JUMPI PUSH2 0xFEF DUP3 SLOAD PUSH2 0xF98 JUMP JUMPDEST PUSH1 0x1F DUP2 GT PUSH2 0x1099 JUMPI JUMPDEST POP PUSH1 0x20 DUP1 PUSH1 0x1F DUP4 GT PUSH1 0x1 EQ PUSH2 0x1035 JUMPI POP DUP2 SWAP3 SWAP4 SWAP5 PUSH1 0x0 SWAP3 PUSH2 0x102A JUMPI JUMPDEST POP POP DUP2 PUSH1 0x1 SHL SWAP2 PUSH1 0x0 NOT SWAP1 PUSH1 0x3 SHL SHR NOT AND OR SWAP1 SSTORE JUMP JUMPDEST ADD MLOAD SWAP1 POP CODESIZE DUP1 PUSH2 0x1014 JUMP JUMPDEST SWAP1 PUSH1 0x1F NOT DUP4 AND SWAP6 DUP5 PUSH1 0x0 MSTORE DUP3 PUSH1 0x0 KECCAK256 SWAP3 PUSH1 0x0 SWAP1 JUMPDEST DUP9 DUP3 LT PUSH2 0x1081 JUMPI POP POP DUP4 PUSH1 0x1 SWAP6 SWAP7 SWAP8 LT PUSH2 0x1068 JUMPI JUMPDEST POP POP POP DUP2 SHL ADD SWAP1 SSTORE JUMP JUMPDEST ADD MLOAD PUSH1 0x0 NOT PUSH1 0xF8 DUP5 PUSH1 0x3 SHL AND SHR NOT AND SWAP1 SSTORE CODESIZE DUP1 DUP1 PUSH2 0x105E JUMP JUMPDEST DUP1 PUSH1 0x1 DUP6 SWAP7 DUP3 SWAP5 SWAP7 DUP7 ADD MLOAD DUP2 SSTORE ADD SWAP6 ADD SWAP4 ADD SWAP1 PUSH2 0x1049 JUMP JUMPDEST PUSH1 0x0 DUP4 DUP2 MSTORE PUSH1 0x20 DUP2 KECCAK256 PUSH1 0x1F DUP5 ADD PUSH1 0x5 SHR DUP2 ADD SWAP3 PUSH1 0x20 DUP6 LT PUSH2 0x10D7 JUMPI JUMPDEST PUSH1 0x1F ADD PUSH1 0x5 SHR ADD SWAP2 JUMPDEST DUP3 DUP2 LT PUSH2 0x10CC JUMPI POP POP PUSH2 0xFF8 JUMP JUMPDEST DUP2 DUP2 SSTORE PUSH1 0x1 ADD PUSH2 0x10BE JUMP JUMPDEST SWAP1 SWAP3 POP DUP3 SWAP1 PUSH2 0x10B5 JUMP JUMPDEST SWAP1 DUP2 SLOAD PUSH1 0x1 PUSH1 0x40 SHL DUP2 LT ISZERO PUSH2 0xDDF JUMPI PUSH1 0x1 DUP2 ADD DUP1 DUP5 SSTORE DUP2 LT ISZERO PUSH2 0x1112 JUMPI PUSH2 0x1110 SWAP3 PUSH1 0x0 MSTORE PUSH1 0x20 PUSH1 0x0 KECCAK256 ADD PUSH2 0xFD2 JUMP JUMPDEST JUMP JUMPDEST PUSH4 0x4E487B71 PUSH1 0xE0 SHL PUSH1 0x0 MSTORE PUSH1 0x32 PUSH1 0x4 MSTORE PUSH1 0x24 PUSH1 0x0 REVERT JUMPDEST PUSH1 0x0 NOT DUP2 EQ PUSH2 0x1137 JUMPI PUSH1 0x1 ADD SWAP1 JUMP JUMPDEST PUSH4 0x4E487B71 PUSH1 0xE0 SHL PUSH1 0x0 MSTORE PUSH1 0x11 PUSH1 0x4 MSTORE PUSH1 0x24 PUSH1 0x0 REVERT JUMPDEST PUSH2 0x1165 SWAP1 PUSH1 0x20 PUSH1 0x40 MLOAD SWAP3 DUP3 DUP5 DUP1 SWAP5 MLOAD SWAP4 DUP5 SWAP3 ADD PUSH2 0xE8D JUMP JUMPDEST DUP2 ADD SUB SWAP1 KECCAK256 SWAP1 JUMP JUMPDEST SWAP1 PUSH1 0x40 MLOAD SWAP2 DUP3 PUSH1 0x0 DUP3 SLOAD SWAP3 PUSH2 0x1181 DUP5 PUSH2 0xF98 JUMP JUMPDEST SWAP1 DUP2 DUP5 MSTORE PUSH1 0x1 SWAP5 DUP6 DUP2 AND SWAP1 DUP2 PUSH1 0x0 EQ PUSH2 0x11EE JUMPI POP PUSH1 0x1 EQ PUSH2 0x11AB JUMPI JUMPDEST POP POP PUSH2 0x1110 SWAP3 POP SUB DUP4 PUSH2 0xE11 JUMP JUMPDEST SWAP1 SWAP4 SWAP2 POP PUSH1 0x0 MSTORE PUSH1 0x20 SWAP1 DUP2 PUSH1 0x0 KECCAK256 SWAP4 PUSH1 0x0 SWAP2 JUMPDEST DUP2 DUP4 LT PUSH2 0x11D6 JUMPI POP POP PUSH2 0x1110 SWAP4 POP DUP3 ADD ADD CODESIZE DUP1 PUSH2 0x119D JUMP JUMPDEST DUP6 SLOAD DUP9 DUP5 ADD DUP6 ADD MSTORE SWAP5 DUP6 ADD SWAP5 DUP8 SWAP5 POP SWAP2 DUP4 ADD SWAP2 PUSH2 0x11BE JUMP JUMPDEST SWAP2 POP POP PUSH2 0x1110 SWAP5 POP PUSH1 0x20 SWAP3 POP PUSH1 0xFF NOT AND DUP3 DUP5 ADD MSTORE ISZERO ISZERO PUSH1 0x5 SHL DUP3 ADD ADD CODESIZE DUP1 PUSH2 0x119D JUMP JUMPDEST PUSH1 0x1 PUSH1 0x1 PUSH1 0x40 SHL SUB DUP2 GT PUSH2 0xDDF JUMPI PUSH1 0x5 SHL PUSH1 0x20 ADD SWAP1 JUMP JUMPDEST DUP1 MLOAD DUP3 LT ISZERO PUSH2 0x1112 JUMPI PUSH1 0x20 SWAP2 PUSH1 0x5 SHL ADD ADD SWAP1 JUMP INVALID LOG2 PUSH5 0x6970667358 0x22 SLT KECCAK256 SWAP15 PUSH24 0xBC3874EFB69A2B86471A6F41D7D1BF5FDC8790EB010FA836 0xF8 0x4F 0xB8 SGT 0xE5 0x24 PUSH5 0x736F6C6343 STOP ADDMOD EQ STOP CALLER "},"methodIdentifiers":{"getAgentMessages(string)":"ad2698ee","getAllMessageIds()":"1858e678","getMessage(string)":"0cc4e8d8","getMessageCount()":"31933916","getPayment(string)":"c69207a3","getPaymentCount()":"af32a03f","getRecentMessages(uint256)":"1e32ef3b","logMessage(string,string,string,string,uint8,uint8,bool)":"0f4fccbe","logMessageResponse(string,string,bool)":"17f76cac","logPayment(string,string,string,uint256,string,string)":"40281edd","messageExists(string)":"67013401","paymentExists(string)":"18c7d16b"}}}}}