{
  "_format": "hh-sol-artifact-1",
  "contractName": "UACPEvents",
  "sourceName": "src/UACPEvents.sol",
  "abi": [
    {
      "anonymous": false,
      "inputs": [
        {
          "indexed": true,
          "internalType": "string",
          "name": "messageId",
          "type": "string"
        },
        {
          "indexed": true,
          "internalType": "string",
          "name": "sender",
          "type": "string"
        },
        {
          "indexed": true,
          "internalType": "string",
          "name": "recipient",
          "type": "string"
        },
        {
          "indexed": false,
          "internalType": "string",
          "name": "intent",
          "type": "string"
        },
        {
          "indexed": false,
          "internalType": "uint256",
          "name": "timestamp",
          "type": "uint256"
        }
      ],
      "name": "MessageLogged",
      "type": "event"
    },
    {
      "anonymous": false,
      "inputs": [
        {
          "indexed": true,
          "internalType": "string",
          "name": "messageId",
          "type": "string"
        },
        {
          "indexed": true,
          "internalType": "string",
          "name": "correlationId",
          "type": "string"
        },
        {
          "indexed": false,
          "internalType": "bool",
          "name": "success",
          "type": "bool"
        },
        {
          "indexed": false,
          "internalType": "uint256",
          "name": "timestamp",
          "type": "uint256"
        }
      ],
      "name": "MessageResponseLogged",
      "type": "event"
    },
    {
      "anonymous": false,
      "inputs": [
        {
          "indexed": true,
          "internalType": "string",
          "name": "messageId",
          "type": "string"
        },
        {
          "indexed": false,
          "internalType": "string",
          "name": "transactionHash",
          "type": "string"
        },
        {
          "indexed": false,
          "internalType": "uint256",
          "name": "amount",
          "type": "uint256"
        },
        {
          "indexed": false,
          "internalType": "uint256",
          "name": "timestamp",
          "type": "uint256"
        }
      ],
      "name": "PaymentLogged",
      "type": "event"
    },
    {
      "inputs": [
        {
          "internalType": "string",
          "name": "_agentId",
          "type": "string"
        }
      ],
      "name": "getAgentMessages",
      "outputs": [
        {
          "internalType": "string[]",
          "name": "",
          "type": "string[]"
        }
      ],
      "stateMutability": "view",
      "type": "function"
    },
    {
      "inputs": [],
      "name": "getAllMessageIds",
      "outputs": [
        {
          "internalType": "string[]",
          "name": "",
          "type": "string[]"
        }
      ],
      "stateMutability": "view",
      "type": "function"
    },
    {
      "inputs": [
        {
          "internalType": "string",
          "name": "_messageId",
          "type": "string"
        }
      ],
      "name": "getMessage",
      "outputs": [
        {
          "components": [
            {
              "internalType": "string",
              "name": "messageId",
              "type": "string"
            },
            {
              "internalType": "uint256",
              "name": "timestamp",
              "type": "uint256"
            },
            {
              "internalType": "string",
              "name": "sender",
              "type": "string"
            },
            {
              "internalType": "string",
              "name": "recipient",
              "type": "string"
            },
            {
              "internalType": "string",
              "name": "intent",
              "type": "string"
            },
            {
              "internalType": "enum UACPEvents.MessageType",
              "name": "messageType",
              "type": "uint8"
            },
            {
              "internalType": "enum UACPEvents.MessagePriority",
              "name": "priority",
              "type": "uint8"
            },
            {
              "internalType": "bool",
              "name": "paymentRequired",
              "type": "bool"
            },
            {
              "internalType": "uint256",
              "name": "blockNumber",
              "type": "uint256"
            },
            {
              "internalType": "address",
              "name": "logger",
              "type": "address"
            }
          ],
          "internalType": "struct UACPEvents.MessageEvent",
          "name": "",
          "type": "tuple"
        }
      ],
      "stateMutability": "view",
      "type": "function"
    },
    {
      "inputs": [],
      "name": "getMessageCount",
      "outputs": [
        {
          "internalType": "uint256",
          "name": "",
          "type": "uint256"
        }
      ],
      "stateMutability": "view",
      "type": "function"
    },
    {
      "inputs": [
        {
          "internalType": "string",
          "name": "_messageId",
          "type": "string"
        }
      ],
      "name": "getPayment",
      "outputs": [
        {
          "components": [
            {
              "internalType": "string",
              "name": "messageId",
              "type": "string"
            },
            {
              "internalType": "string",
              "name": "transactionHash",
              "type": "string"
            },
            {
              "internalType": "string",
              "name": "asset",
              "type": "string"
            },
            {
              "internalType": "uint256",
              "name": "amount",
              "type": "uint256"
            },
            {
              "internalType": "string",
              "name": "from",
              "type": "string"
            },
            {
              "internalType": "string",
              "name": "to",
              "type": "string"
            },
            {
              "internalType": "uint256",
              "name": "timestamp",
              "type": "uint256"
            },
            {
              "internalType": "uint256",
              "name": "blockNumber",
              "type": "uint256"
            }
          ],
          "internalType": "struct UACPEvents.PaymentEvent",
          "name": "",
          "type": "tuple"
        }
      ],
      "stateMutability": "view",
      "type": "function"
    },
    {
      "inputs": [],
      "name": "getPaymentCount",
      "outputs": [
        {
          "internalType": "uint256",
          "name": "",
          "type": "uint256"
        }
      ],
      "stateMutability": "view",
      "type": "function"
    },
    {
      "inputs": [
        {
          "internalType": "uint256",
          "name": "_count",
          "type": "uint256"
        }
      ],
      "name": "getRecentMessages",
      "outputs": [
        {
          "internalType": "string[]",
          "name": "",
          "type": "string[]"
        }
      ],
      "stateMutability": "view",
      "type": "function"
    },
    {
      "inputs": [
        {
          "internalType": "string",
          "name": "_messageId",
          "type": "string"
        },
        {
          "internalType": "string",
          "name": "_sender",
          "type": "string"
        },
        {
          "internalType": "string",
          "name": "_recipient",
          "type": "string"
        },
        {
          "internalType": "string",
          "name": "_intent",
          "type": "string"
        },
        {
          "internalType": "enum UACPEvents.MessageType",
          "name": "_messageType",
          "type": "uint8"
        },
        {
          "internalType": "enum UACPEvents.MessagePriority",
          "name": "_priority",
          "type": "uint8"
        },
        {
          "internalType": "bool",
          "name": "_paymentRequired",
          "type": "bool"
        }
      ],
      "name": "logMessage",
      "outputs": [],
      "stateMutability": "nonpayable",
      "type": "function"
    },
    {
      "inputs": [
        {
          "internalType": "string",
          "name": "_messageId",
          "type": "string"
        },
        {
          "internalType": "string",
          "name": "_correlationId",
          "type": "string"
        },
        {
          "internalType": "bool",
          "name": "_success",
          "type": "bool"
        }
      ],
      "name": "logMessageResponse",
      "outputs": [],
      "stateMutability": "nonpayable",
      "type": "function"
    },
    {
      "inputs": [
        {
          "internalType": "string",
          "name": "_messageId",
          "type": "string"
        },
        {
          "internalType": "string",
          "name": "_transactionHash",
          "type": "string"
        },
        {
          "internalType": "string",
          "name": "_asset",
          "type": "string"
        },
        {
          "internalType": "uint256",
          "name": "_amount",
          "type": "uint256"
        },
        {
          "internalType": "string",
          "name": "_from",
          "type": "string"
        },
        {
          "internalType": "string",
          "name": "_to",
          "type": "string"
        }
      ],
      "name": "logPayment",
      "outputs": [],
      "stateMutability": "nonpayable",
      "type": "function"
    },
    {
      "inputs": [
        {
          "internalType": "string",
          "name": "_messageId",
          "type": "string"
        }
      ],
      "name": "messageExists",
      "outputs": [
        {
          "internalType": "bool",
          "name": "",
          "type": "bool"
        }
      ],
      "stateMutability": "view",
      "type": "function"
    },
    {
      "inputs": [
        {
          "internalType": "string",
          "name": "_messageId",
          "type": "string"
        }
      ],
      "name": "paymentExists",
      "outputs": [
        {
          "internalType": "bool",
          "name": "",
          "type": "bool"
        }
      ],
      "stateMutability": "view",
      "type": "function"
    }
  ],
  "bytecode": "0x6080806040523461001657611272908161001c8239f35b600080fdfe608060405260048036101561001357600080fd5b6000803560e01c80630cc4e8d814610b485780630f4fccbe1461086057806317f76cac146107b95780631858e6781461072e57806318c7d16b146106f65780631e32ef3b146105dc57806331933916146105be57806340281edd146103f1578063670134011461038a578063ad2698ee146102d4578063af32a03f146102b65763c69207a3146100a257600080fd5b346102b3576020806003193601126102af5782356001600160401b0381116102ab576100d19036908501610e32565b604051926100de84610df5565b60e0606094858152858582015285604082015282868201528560808201528560a08201528260c0820152015260405190610135815192848181850195610125818389610e8d565b8101600181520301902054610f98565b156102735782906040518093819251809261014f92610e8d565b81016001815203019020906040519261016784610df5565b6101708361116d565b845261017e6001840161116d565b8483019081526101906002850161116d565b956040860196875260038501549083870191825285016101af9061116d565b60808701908152906101c36005870161116d565b9160a0880192835260068701549660c08901978852600701549460e08901958652604051998a99888b525161010080998c01526101208b0161020491610eb0565b9551601f1996878c82030160408d015261021d91610eb0565b905191868b830301908b015261023291610eb0565b915160808901525190838882030160a089015261024e91610eb0565b9051918682030160c087015261026391610eb0565b925160e085015251908301520390f35b60405162461bcd60e51b8152808601849052601160248201527014185e5b595b9d081b9bdd08199bdd5b99607a1b6044820152606490fd5b8280fd5b5080fd5b80fd5b50346102b357806003193601126102b3576020600554604051908152f35b5090346102af57602090816003193601126102ab578035906001600160401b0382116103865761030b839161031e93369101610e32565b8160405193828580945193849201610e8d565b8101600281520301902080549061033482611211565b926103426040519485610e11565b82845280840191855280852094915b83831061036a57604051806103668782610ef5565b0390f35b60018281926103788961116d565b815201960192019194610351565b8380fd5b5090346102af5760203660031901126102af5780356001600160401b0381116102ab57602080936103c46103e7946103d894369101610e32565b908260405194838680955193849201610e8d565b82019081520301902054610f98565b1515604051908152f35b5090346102af5760c03660031901126102af576001600160401b03908035828111610386576104239036908301610e32565b6024358381116105ba5761043a9036908401610e32565b916044358481116105b6576104529036908301610e32565b90606435946084358181116105b25761046e9036908401610e32565b9060a4359081116105b2576104869036908401610e32565b9161049385511515610f57565b85511561056e57926105286105479361051f61055c97947fee4c145a57458a1d698fa86077f7e3e529af1ef302ed7253461193596cd138499997610512604051602081816104e78c83815193849201610e8d565b81016001815203019020966104fc8989610fd2565b6105098b60018a01610fd2565b60028801610fd2565b8b60038701558501610fd2565b60058301610fd2565b42600682015560074391015561053f600554611128565b60055561114d565b93604051928392606084526060840190610eb0565b9060208301524260408301520390a280f35b60649060206040519162461bcd60e51b8352820152601860248201527f496e76616c6964207472616e73616374696f6e206861736800000000000000006044820152fd5b8780fd5b8580fd5b8480fd5b5090346102af57816003193601126102af5760209054604051908152f35b50346102b357602090816003193601126102b35760038054908435828111156106f0575081925b61060c84611211565b9461061a6040519687610e11565b848652601f1961062986611211565b01825b8181106106e157505050805b84811061064d57604051806103668882610ef5565b8484038481116106ce578181018091116106ce57848110156106bb579061069b6106b6928585527fc2575a0e9e593c00f959f8c92f12db2869c3395a3b0502d05e2516446f71f85b0161116d565b6106a58289611228565b526106b08188611228565b50611128565b610638565b634e487b7160e01b835260328852602483fd5b634e487b7160e01b835260118852602483fd5b6060888201840152820161062c565b92610603565b50346102b35760203660031901126102b3578135906001600160401b0382116102b35760206103e76101258261030b36878901610e32565b50346102b357806003193601126102b35760035461074b81611211565b906107596040519283610e11565b808252600383527fc2575a0e9e593c00f959f8c92f12db2869c3395a3b0502d05e2516446f71f85b9260208084015b83831061079d57604051806103668782610ef5565b60018281926107ab8961116d565b815201960192019194610788565b5090346102af5760603660031901126102af576001600160401b038135818111610386576107ea9036908401610e32565b916024359182116103865761080191369101610e32565b6044359182151580930361038657604061085061084a836108457f282182a5480181247cae9be05bcb04352cea5b5e68c5789bba5052fc51f49fa195511515610f57565b61114d565b9361114d565b938151908152426020820152a380f35b5090346102af5760e03660031901126102af576001600160401b038135818111610386576108919036908401610e32565b6024358281116105ba576108a89036908501610e32565b906044358381116105b6576108c09036908601610e32565b926064359081116105b6576108d89036908601610e32565b906084359480861015610b445760a435818110156105b25760c435801515809103610b405761090984511515610f57565b6040519784516109288a8c60209c8d91828b01956103d8818489610e8d565b610b0357906109488a60079594938d604051809481938c51928391610e8d565b8201908152030190209261095c8785610fd2565b42600185015561096f8960028601610fd2565b61097c8a60038601610fd2565b61098888878601610fd2565b61ff00600585019361099984610ed5565b60ff62ff00008654926109ab86610ed5565b60101b1694169062ffffff1916179160081b161717905543600682015501336bffffffffffffffffffffffff60a01b825416179055600354600160401b811015610af0576001810180600355811015610add57610ab6610ab6847fbbf2ae7444270c9c6f98fa35ee249c1a7bd7cb7a6202e8d914c3c6b10fc98aa49694610a5e610ad197610abc9660038f527fc2575a0e9e593c00f959f8c92f12db2869c3395a3b0502d05e2516446f71f85b01610fd2565b610a8982610a7a8d8c8160405193828580945193849201610e8d565b810160028152030190206110e1565b610aa582610a7a8d8d8160405193828580945193849201610e8d565b610aaf8154611128565b905561114d565b9561114d565b95604051928392604084526040840190610eb0565b9042908301520390a480f35b634e487b7160e01b885260328252602488fd5b634e487b7160e01b885260418252602488fd5b60405162461bcd60e51b81528086018b9052601660248201527513595cdcd859d948185b1c9958591e481b1bd9d9d95960521b6044820152606490fd5b8880fd5b8680fd5b50346102b35760203660031901126102b35781356001600160401b0381116102af57610b779036908401610e32565b9080610120604051610b8881610dc3565b6060815282602082015260606040820152606080820152606060808201528260a08201528260c08201528260e082015282610100820152015260405191610bec81519360208181850196610bdd81838a610e8d565b81018681520301902054610f98565b15610d8b5791602091610c0a93604051948593849251928391610e8d565b820190815203019020610c6160405192610c2384610dc3565b610c2c8361116d565b845260018301546020850152610c446002840161116d565b6040850152610c556003840161116d565b6060850152820161116d565b608083015260ff6005820154610c78828216610ed5565b81811660a0850152818160081c16610c8f81610ed5565b60c085015260101c16151560e08301526006810154610100830152600760018060a01b0391015416610120820152604051809160208252610d33610ce182516101406020860152610160850190610eb0565b60208301516040850152610d1e610d0a604085015192601f199384888303016060890152610eb0565b606085015183878303016080880152610eb0565b906080840151908583030160a0860152610eb0565b9060a0810151610d4281610ed5565b60c084015260c0810151610d5581610ed5565b60e084015260e0810151151561010084015261010081015161012084015261012060018060a01b03910151166101408301520390f35b60405162461bcd60e51b8152602081860152601160248201527013595cdcd859d9481b9bdd08199bdd5b99607a1b6044820152606490fd5b61014081019081106001600160401b03821117610ddf57604052565b634e487b7160e01b600052604160045260246000fd5b61010081019081106001600160401b03821117610ddf57604052565b90601f801991011681019081106001600160401b03821117610ddf57604052565b81601f82011215610e88578035906001600160401b038211610ddf5760405192610e66601f8401601f191660200185610e11565b82845260208383010111610e8857816000926020809301838601378301015290565b600080fd5b60005b838110610ea05750506000910152565b8181015183820152602001610e90565b90602091610ec981518092818552858086019101610e8d565b601f01601f1916010190565b60041115610edf57565b634e487b7160e01b600052602160045260246000fd5b602080820190808352835180925260408301928160408460051b8301019501936000915b848310610f295750505050505090565b9091929394958480610f47600193603f198682030187528a51610eb0565b9801930193019194939290610f19565b15610f5e57565b60405162461bcd60e51b8152602060048201526012602482015271125b9d985b1a59081b595cdcd859d948125160721b6044820152606490fd5b90600182811c92168015610fc8575b6020831014610fb257565b634e487b7160e01b600052602260045260246000fd5b91607f1691610fa7565b91909182516001600160401b038111610ddf57610fef8254610f98565b601f8111611099575b50602080601f831160011461103557508192939460009261102a575b50508160011b916000199060031b1c1916179055565b015190503880611014565b90601f198316958460005282600020926000905b88821061108157505083600195969710611068575b505050811b019055565b015160001960f88460031b161c1916905538808061105e565b80600185968294968601518155019501930190611049565b600083815260208120601f840160051c810192602085106110d7575b601f0160051c01915b8281106110cc575050610ff8565b8181556001016110be565b90925082906110b5565b908154600160401b811015610ddf57600181018084558110156111125761111092600052602060002001610fd2565b565b634e487b7160e01b600052603260045260246000fd5b60001981146111375760010190565b634e487b7160e01b600052601160045260246000fd5b61116590602060405192828480945193849201610e8d565b810103902090565b906040519182600082549261118184610f98565b9081845260019485811690816000146111ee57506001146111ab575b505061111092500383610e11565b9093915060005260209081600020936000915b8183106111d65750506111109350820101388061119d565b855488840185015294850194879450918301916111be565b91505061111094506020925060ff191682840152151560051b820101388061119d565b6001600160401b038111610ddf5760051b60200190565b80518210156111125760209160051b01019056fea26469706673582212209e77bc3874efb69a2b86471a6f41d7d1bf5fdc8790eb010fa836f84fb813e52464736f6c63430008140033",
  "linkReferences": {},
  "deployedLinkReferences": {}
}